:020000040000FA
:100000000C94C8050C94F23F0C94C73F0C949C3F91
:100010000C94713F0C94463F0C941B3F0C94F03EA3
:100020000C94C53E0C94F9050C94F9050C94F90553
:100030000C94F9050C94F9050C94F9050C94F90548
:100040000C94F9050C94F9050C94F9050C94F90538
:100050000C94F9050C94F9050C94F9050C947B3E6D
:100060000C94F9050C94453E0C941B3E0C94F90538
:100070000C94F9050C94F9050C94F9050C94F90508
:100080000C94F9050C94F9050C94F9050C94F905F8
:100090000C94F9050C94F9050C94F9050C941D4089
:1000A0000C94F9050C94F9050C94F9050C94F905D8
:1000B0000C94F9050C94F9050C94F9050C94F905C8
:1000C0000C94F9050C94F9050C94F9050C94F905B8
:1000D0000C94F9050C94F9050C94F9050C94F905A8
:1000E0000C94F9050C9489090C9400370C94950A2A
:1000F0000C946C410C94A8320C94C02C0C94910874
:100100000C94110C0C94621E0C9423160C94021780
:100110000C940C280C947E230C94DA290C949D07E3
:100120000C94B7080C94E4190C94D52C0C94612A07
:100130000C9432060C9481310C9472510C94B22BB5
:100140000C9438060C94E8220C94D4180C949B1E42
:100150000C94A6180C94990A0C94C31E0C94B232F9
:100160000C9482080C944F1D0C94A50A0C94B73083
:100170000C9470080C949B080C94C71D0C944A2393
:100180000C94CA1E0C941B280C94A9080C944307C9
:100190000C94642E0C94291E0C94282A0C94B718E5
:1001A0000C94120E0C94AF080C94480A0C947932FB
:1001B0000C9433060C94BA3A0C947F0A0C945707AB
:1001C0000C94AC310C94BB2E0C94B71E0C942F3AAB
:1001D0000C94EA070C94DC2F0C94A1080C940707EC
:1001E0000C94AB1E0C94A30A0C945E0A0C94282366
:1001F0000C94B3080C9434060C94352D0C94B52350
:100200000C9402070C94BF290C9434070C948A08B0
:100210000C948E080C946B080C94C1080C94F10B90
:100220000C94B1230C94A5080C94BD080C94512394
:100230000C94F62F0C941E1C0C9405310C94303346
:100240000C94F6060C94CC230C9406070C94B22F55
:100250000C9486080C94FE060C94E41D0C9465071F
:100260000C9497080C94AD230C94F01C0C94210C66
:100270000C94D5300C94C5230C9437230C94062A87
:100280000C9497160C94740A0C94932F0C942D16BE
:100290000C945A210C94BC390C94502D00407A10C7
:1002A000F35A00A0724E18090010A5D4E80000E827
:1002B0007648170000E40B54020000CA9A3B000085
:1002C00000E1F505000080969800000040420F0014
:1002D0000000A08601000000102700000000E803D5
:1002E000000000006400000000000A0000000000A0
:1002F0000100000000002C76D888DC674F0823DF5F
:10030000C1DFAE59E1B1B796E5E3E453C63AE65131
:10031000997696E8E6C28426EB898C9B62ED407C58
:100320006FFCEFBC9C9F40F2BAA56FA5F490055AF4
:100330002AF75C936B6CF9676DC11BFCE0E40D4719
:10034000FEF520E6B500D0ED902E0300943577053C
:100350000080841E080000204E0A000000C80C33F4
:100360003333330F986E12831141EF8D2114893B83
:10037000E65516CFFEE6DB18D1844B381BF77C1D03
:10038000901DA4BBE424203284725E228100C9F156
:1003900024ECA1E53D2700000000003E5B4F5B3EE2
:1003A0003E6B4F6B3E1C3E7C3E1C183C7E3C181C3A
:1003B000577D571C1C5E7F5E1C00183C1800FFE731
:1003C000C3E7FF0018241800FFE7DBE7FF30483AD7
:1003D000060E2629792926407F050507407F052539
:1003E0003F5A3CE73C5A7F3E1C1C08081C1C3E7FC1
:1003F00014227F22145F5F005F5F06097F017F0088
:100400006689956A606060606094A2FFA2940804A7
:100410007E040810207E201008082A1C08081C2AC8
:1004200008081E101010100C1E0C1E0C30383E3820
:1004300030060E3E0E06000000000000005F0000C7
:100440000007000700147F147F14242A7F2A122338
:100450001308646236495620500008070300001C48
:100460002241000041221C002A1C7F1C2A08083E51
:100470000808008070300008080808080000606064
:100480000020100804023E5149453E00427F4000D2
:1004900072494949462141494D331814127F1027AA
:1004A000454545393C4A49493141211109073649F9
:1004B000494936464949291E0000140000004034CD
:1004C00000000008142241141414141400412214D2
:1004D0000802015909063E415D594E7C1211127CF9
:1004E0007F494949363E414141227F4141413E7F5A
:1004F000494949417F090909013E414151737F083A
:1005000008087F00417F41002040413F017F0814DF
:1005100022417F404040407F021C027F7F04081040
:100520007F3E4141413E7F090909063E4151215E1E
:100530007F09192946264949493203017F01033FB2
:100540004040403F1F2040201F3F4038403F631441
:1005500008146303047804036159494D43007F4143
:1005600041410204081020004141417F0402010280
:1005700004404040404000030708002054547840A5
:100580007F284444383844444428384444287F3839
:100590005454541800087E090218A4A49C787F08BB
:1005A00004047800447D40002040403D007F102836
:1005B000440000417F40007C047804787C080404F7
:1005C000783844444438FC1824241818242418FC8F
:1005D0007C08040408485454542404043F44243C34
:1005E0004040207C1C2040201C3C4030403C4428A3
:1005F0001028444C9090907C4464544C440008363D
:1006000041000000770000004136080002010204AA
:10061000023C2623263C1EA1A161123A4040207ACA
:100620003854545559215555794122545478422112
:100630005554784020545579400C1E527212395549
:100640005555593954545459395554545800004546
:100650007C410002457D420001457C407D12111223
:100660007DF0282528F07C545545002054547C54B6
:100670007C0A097F4932494949323A4444443A3272
:100680004A4848303A4141217A3A42402078009D18
:10069000A0A07D3D4242423D3D4040403D3C24FFC4
:1006A0002424487E4943662B2FFC2F2BFF0929F673
:1006B00020C0887E090320545479410000447D41C4
:1006C0003048484A32384040227A007A0A0A727D1D
:1006D0000D19317D2629292F282629292926304838
:1006E0004D4020380808080808080808382F10C8A6
:1006F000ACBA2F102834FA00007B000008142A142A
:100700002222142A14085500550055AA55AA55AAA4
:10071000FF55FF55FF000000FF00101010FF0014F0
:100720001414FF001010FF00FF1010F010F014144C
:1007300014FC001414F700FF0000FF00FF1414F471
:1007400004FC141417101F10101F101F1414141F72
:1007500000101010F0000000001F101010101F10EB
:10076000101010F010000000FF10101010101010EA
:100770001010FF10000000FF140000FF00FF000039
:100780001F10170000FC04F414141710171414F4AD
:1007900004F40000FF00F714141414141414F700E8
:1007A000F7141414171410101F101F141414F41439
:1007B0001010F010F000001F101F0000001F1400A8
:1007C0000000FC140000F010F01010FF10FF1414D3
:1007D00014FF141010101F00000000F010FFFFFFA6
:1007E000FFFFF0F0F0F0F0FFFFFF0000000000FF5F
:1007F000FF0F0F0F0F0F3844443844FC4A4A4A3465
:100800007E02020606027E027E026355494163387B
:1008100044443C04407E201E2006027E020299A52C
:10082000E7A5991C2A492A1C4C7201724C304A4D8A
:100830004D303048784830BC625A463D3E494949BF
:10084000007E0101017E2A2A2A2A2A44445F444468
:1008500040514A444040444A51400000FF0103E0F7
:1008600080FF000008086B6B083612362436060F2E
:10087000090F06000018180000001010003040FF9B
:100880000101001F01011E00191D1712003C3C3C14
:100890003C00000000007C3C3E5E2B3D3F2F5B5D3A
:1008A0003B2C2A225C0000002100240027002A00A3
:1008B0002D003000330001010000040107010A018E
:1008C00000002200250028002B002E0031003400FB
:1008D00002010000050108010B01050505050705DA
:1008E00008080808020202020A0A080804040404AC
:1008F00001010101010101010303030303030303D8
:10090000040707070C0C0C0C0C0C0C0C0202020266
:1009100006060606060606060B0B0B0B0B0B0B0B4F
:100920000102102020080810204010204080020101
:1009300002010804020101020408102040808040E6
:1009400020100804020180040201804020100804E5
:100950000201080402010102040810204080010283
:1009600004081020408000000A0B02090C0D0E083C
:100970000703040100000000000000000000000068
:100980000000000000000000000000000000000067
:100990000000121110000000000000000000000024
:1009A00000000000000000000000000000006000E7
:1009B00000000000000000000000000000E0000057
:1009C000000000000000000000000001E000000046
:1009D0000000000000000000000001F00000000026
:1009E00000000000000000000003F0000000000014
:1009F000000000000000000007F000000000000000
:100A00000000000000000007F800000000000000E7
:100A10000000000000000FF800000003C0007E008E
:100A20000001E0007F0FF800000003C000FE00009E
:100A300001E000FFEFF800000003C000FE0000012D
:100A4000E000FFFFF800000003C000F00000000F0E
:100A5000007FFE7FC0000003C000F00000000F0018
:100A60003FFE7FF83FF1FBCFFCFEF3BC3DEFE01F04
:100A7000FE7FFF7FFBFFDFFEFEFFBC3DEFE01FC6FA
:100A8000FFFF7FFBFFDFFEFEFFBC3DEFE00FE3C794
:100A9000FE787BC3DE1EF0FFBC3DEF0007FF87FC46
:100AA000787BC3DE1EF0F83C3DEF0001FFFFF00055
:100AB0007BC3C01EF0F03C3DEF0001F37FE03FFB45
:100AC000C3CFFEF0F03C3DEF0003E33F807FFBC36C
:100AD000DFFEF0F03C3DEF0007E73C00787BC3DE33
:100AE0001EF0F03C3DEF0007FFBE00787BC3DE1E2A
:100AF000F0F03C3DEF0007FFFE00787BC3DE1EF008
:100B0000F03C3DEF000FFFFE007FFBFFDFFEF0F04B
:100B10003FFDEFE00FFFFF007FFBFFDFFEF0F03F48
:100B2000FDEFE00FF9FF003E79F9CF9EF0F01F3D99
:100B3000E7E01FF1FF0000000000000000000000DF
:100B4000001F80FF007FFFFFFFFFFFFFFFFFFFE0B1
:100B50001C007F007FFFFFFFFEB46D888D18E00052
:100B6000001F007FFFFFFFFE95AD7DB577E0000021
:100B70000F007FFFFFFFFEA5AD9D8D19E000000671
:100B8000007FFFFFFFFEB5ADEDB57EE06C41725119
:100B900011241FBECFEFD1E2DEBFCDBF00E00CBFFE
:100BA00014E0A0E0B2E0E6E1F6EB00E00BBF02C02B
:100BB00007900D92A634B107D9F72AE0A6E4B4E075
:100BC00001C01D92A03DB207E1F715E0C7ECD5E0EA
:100BD00000E006C021970109802FFE010E946358A2
:100BE000C63CD10780E00807A9F70E94FD420C949B
:100BF000F95A0C940000CF93DF93FC01828193811A
:100C00009093DD098093DC0984819581A681B78169
:100C10008093DE099093DF09A093E009B093E10986
:100C200080859185A285B3858093E2099093E3093D
:100C3000A093E409B093E509DF011C96CF01499622
:100C4000C6EED9E02D912993A817B907D9F7818D60
:100C5000928D9093F4098093F3098AED99E0DF91E6
:100C6000CF91089508950895FC01818D928D089586
:100C700008958230910538F0880F991F880F991FC9
:100C800005970197F1F708959F92AF92BF92CF9287
:100C9000DF92EF92FF920F931F93CF93DF93EC01BC
:100CA0006B018885998511E0892B09F010E8F60120
:100CB000A0808A2D8123992493948111912C2C81D9
:100CC0003D814E815F8160E271EA87E090E00E94A1
:100CD000D456022FB12CE22EF12C002319F0C701BB
:100CE0000E9439068A85877F09F04FC08D858F3F26
:100CF00089F09A2D912381E009F480E0891551F063
:100D0000EF85F8898F899923D1F19081892B808390
:100D100099249394E989FA898081998D892B80831C
:100D2000002319F0C7010E9439068E858F3F39F0E4
:100D3000EB89FC898081988D892309F0B12AE989A2
:100D4000FA899081898D8095892380838E858F3F54
:100D500011F0F601B08288859985892B09F044C08D
:100D6000110F1111BACFDF91CF911F910F91FF9009
:100D7000EF90DF90CF90BF90AF909F9008959081BB
:100D8000809589238083912CC5CFE989FA89808158
:100D9000998D892B8083002319F0C7010E943906A1
:100DA0008D858F3F49F0EF85F8898F899A2D9123A2
:100DB000B9F09081892B8083E989FA899081898DA6
:100DC0008095892380838E858F3F09F4BFCFEB897F
:100DD000FC898081988D892309F4B8CFB12AB6CFD8
:100DE000908180958923E7CF1695BBCF21E0FC0148
:100DF0008485883008F020E0822F089581E0809378
:100E0000F404089581E08093F30408950895AF9267
:100E1000BF92CF92DF92EF92FF920F931F93CF93E7
:100E2000DF936C017B018B01040F151FEB015E0149
:100E3000AE18BF08C017D10759F06991D601ED91DE
:100E4000FC910190F081E02DC6011995892B79F76D
:100E5000C501DF91CF911F910F91FF90EF90DF902F
:100E6000CF90BF90AF900895FC01538D448D252FF6
:100E700030E0842F90E0821B930B541710F0CF9634
:100E8000089501970895FC01918D828D981761F066
:100E9000A28DAE0FBF2FB11D5D968C91928D9F5F7D
:100EA0009F73928F90E008958FEF9FEF0895FC015C
:100EB000918D828D981731F0828DE80FF11D858D0F
:100EC00090E008958FEF9FEF0895FC01918D228DA2
:100ED000892F90E0805C9F4F821B91098F73992727
:100EE000089584EA98E00E94650721E0892B09F4BF
:100EF00020E0822F0895FC01A48DA80FB92FB11D09
:100F0000A35ABF4F2C91848D90E001968F7399273F
:100F1000848FA689B7892C93A089B1898C9183701D
:100F200080648C93938D848D981306C00288F38916
:100F3000E02D80818F7D80830895EF92FF920F9343
:100F40001F93CF93DF93EC0181E0888F9B8D8C8D75
:100F500098131AC0E889F989808185FF15C09FB769
:100F6000F894EE89FF896083E889F989808183702C
:100F7000806480839FBF81E090E0DF91CF911F91DB
:100F80000F91FF90EF900895F62E0B8D10E00F5FFC
:100F90001F4F0F731127E02E8C8D8E110CC00FB6D2
:100FA00007FCFACFE889F989808185FFF5CFCE016A
:100FB0000E947B07F1CFEB8DEC0FFD2FF11DE35A63
:100FC000FF4FF0829FB7F8940B8FEA89FB898081ED
:100FD0008062CFCFCF93DF93EC01888D8823B9F067
:100FE000AA89BB89E889F9898C9185FD03C0808134
:100FF00086FD0DC00FB607FCF7CF8C9185FFF2CFB1
:10100000808185FFEDCFCE010E947B07E9CFDF9184
:10101000CF91089580E090E0892B29F00E9471071C
:1010200081110E94000080E090E0892B49F080E06F
:1010300090E0892B29F00E94000081110E9400009D
:1010400080E090E0892B49F080E090E0892B29F046
:101050000E94000081110E94000080E090E0892B36
:1010600049F080E090E0892B29F00E940000811176
:101070000C9400000895282F30E0F901EA59F64F4A
:101080009491F901E05EF64F44912652374FF901F1
:101090002491222309F435C0992311F19150923102
:1010A000F8F4E92FF0E08827E75AF74F8F4F0C94B8
:1010B00063588A088E086B088208860870089108B1
:1010C00097089B08A108A508A908AF08B3087008ED
:1010D000B708BD08C108809180008F778093800099
:1010E000E22FF0E0EE0FFF1FE054F74FA591B4910F
:1010F0008FB7F894EC91611148C040954E234C9302
:101100008FBF0895809180008F7DE8CF809180000F
:10111000877FE4CF84B58F7784BDE2CF84B58F7DA0
:10112000FBCF8091B0008F778093B000D9CF8091B2
:10113000B0008F7DF9CF809190008F7780939000E1
:10114000CFCF809190008F7DF9CF80919000877FE5
:10115000F5CF8091A0008F778093A000C1CF8091C0
:10116000A0008F7DF9CF8091A000877FF5CF80917F
:1011700020018F7780932001B3CF809120018F7D54
:10118000F9CF80912001877FF5CF4E2BB8CFCF9339
:10119000DF9390E0FC01E05EF64F24918652974F7A
:1011A000FC0184918823D1F090E0880F991FFC0105
:1011B000EA55F74FA591B491FC01E054F74FC59162
:1011C000D49161110EC09FB7F8948C91E22FE095F5
:1011D0008E238C932881E223E8839FBFDF91CF91F8
:1011E00008958FB7F894EC91E22BEC938FBFF6CF74
:1011F0003FB7F8948091BE049091BF04A091C004C1
:10120000B091C10426B5A89B05C02F3F19F00196E7
:10121000A11DB11D3FBFBA2FA92F982F8827BC0150
:10122000CD01620F711D811D911D42E0660F771F78
:10123000881F991F4A95D1F708958F929F92AF9278
:10124000BF92CF92DF92EF92FF924B015C010E941E
:10125000F8086B017C010E94F8086C197D098E0961
:101260009F09683E734081059105A8F321E0821A29
:101270009108A108B10888EEC80E83E0D81EE11CD1
:10128000F11C81149104A104B10429F7FF90EF909F
:10129000DF90CF90BF90AF909F908F9008952FB721
:1012A000F8946091BA047091BB048091BC04909151
:1012B000BD042FBF08950F931F93CF93DF93EC01CD
:1012C0000E944F09688779878A879B87E881F9811F
:1012D0000284F385E02DCE01199597FF15C00E9479
:1012E0004F09088519852A853B85601B710B820B88
:1012F000930B0C811D812E813F816017710782073E
:10130000930720F38FEF9FEFDF91CF911F910F9104
:1013100008950895CF92DF92EF92FF92CF93DF93DB
:10132000EB01FC01238134816FE6C62E62E1D62EEB
:1013300063E0E62E60E4F62E2115F4E03F0779F134
:1013400098F42115310509F45DC07FE6C72E72E1DE
:10135000D72E73E8E72E70E4F72E21153240F9F00E
:10136000C12CD12C76011BC04FE6C42E42E1D42EF5
:1013700043E0E42E4FE3F42E2115F8E03F0779F027
:1013800021154AE03407A9F12115364049F75FE6F7
:10139000C52E52E1D52E53E8E52E5FE3F52EFC0174
:1013A000228160E070E880E090E004C09595879528
:1013B000779567952A95D2F70E94A7559B01AC01B6
:1013C000C701B6010E947D576B017C01BE01DD0F94
:1013D000880B990B0E94A7559B01AC01C701B60170
:1013E0000E940656DF91CF91FF90EF90DF90CF9053
:1013F00008953FE6C32E32E1D32E33E8E32E3EE3D9
:10140000F32ECDCF26EAC22E2BE9D22E24ECE22EEB
:1014100020E4F22EC4CFFC0120812EBD9B0121507F
:10142000310941F051810DB407FEFDCF4EB55EBDCF
:101430004193F5CF61507109860F971F0DB407FED8
:10144000FDCF2EB5FC0120830895E0919604F09124
:101450009704808190919504892B80830895E09171
:101460009604F0919704908180919504809589234A
:101470008083089590E020913D06233339F40C9643
:10148000982F990F990F990F80E008954896F8CFFB
:10149000CF93DF931F92CDB7DEB76983DC01ED9167
:1014A000FC910280F381E02D41E050E0BE016F5FCE
:1014B0007F4F19950F90DF91CF910895CF93DF93D0
:1014C0001F92CDB7DEB76983DC01ED91FC910280FC
:1014D000F381E02D41E050E0BE016F5F7F4F199531
:1014E0000F90DF91CF910895FC019485FB018485D5
:1014F000981303C081E0983008F080E00895CF93FE
:10150000DF931F92CDB7DEB76983DC01ED91FC91CB
:101510000280F381E02D41E050E0BE016F5F7F4F1C
:1015200019950F90DF91CF910895FC01768765871B
:101530000895DC01ED91FC91068CF78DE02D199555
:1015400091E089270895862F089581E086270895E0
:101550004F925F926F927F928F929F92AF92BF92C3
:10156000CF92DF92EF92FF920F931F93CF93DF936F
:101570004B015C018091910490919204A09193049D
:10158000B091940488159905AA05BB0509F4C6C055
:101590008CE3C82ED12CE12CF12CC501A7019601BA
:1015A0000E94D45660934D08CA01B901A701960163
:1015B0000E94D45660934E08C501B40120E13EE07C
:1015C00040E050E00E94D456CA01B90128E130E061
:1015D00040E050E00E94D45660934F08C501B4012A
:1015E00020E831E541E050E00E94D45669017A01DB
:1015F000CA01B9016C5F7F4F8F4F9F4F27E030E0EA
:1016000040E050E00E94D4566F5F60935008412C38
:10161000512C320140E004E610E0C0E9D1E0242F73
:1016200030E02E54384FF901E370FF273097F9F47A
:10163000C901B8010E944F58892B31F4C901BE017C
:101640000E944F58892B99F48EE691E0A0E0B0E01B
:10165000480E591E6A1E7B1ED301C201AA27BB2752
:10166000C816D906EA06FB0638F04F5FD8CF8DE6DC
:1016700091E0A0E0B0E0ECCF40935308C90164E6EC
:1016800070E00E944F58EC01C90160E971E00E94CE
:101690004F58309721F42097D9F40097C9F04DE6C0
:1016A00051E060E070E0441A550A660A770AC418EF
:1016B000D508E608F708A3E2B2E020E0213069F49B
:1016C0003097E9F5209711F40097C9F54DE106C070
:1016D0004EE651E060E070E0E6CF4C9150E070E003
:1016E00060E031E0320FC416D506E606F70640F09A
:1016F000C41AD50AE60AF70A1196232F3C30F1F6F0
:101700002F5F20935208C394C09251088092910495
:1017100090929204A0929304B0929404DF91CF919E
:101720001F910F91FF90EF90DF90CF90BF90AF90FF
:101730009F908F907F906F905F904F9008954CE1B5
:10174000CDCFFC01DB0112968D919C911397938371
:10175000828381E992E09183808314968C9114971F
:10176000848315968C911597858316964D915D917E
:101770006D917C91199746835783608771871A967C
:101780004D915D916D917C911D9742875387648740
:1017900075871E964D915D916D917C91519746870D
:1017A0005787608B718B52968C915297828B539690
:1017B0004D915D916D917C915697438B548B658BC8
:1017C000768B57964D915D916D917C915A97478B91
:1017D000508F618F728F5B968D919C91948F838FC8
:1017E0000895DC015996ED91FC913097B9F0838909
:1017F0009489A589B6894285538564857585841B3E
:10180000950BA60BB70B811520E89207A105B10532
:1018100038F08FEF9FE7A0E0B0E0089590E080E01F
:101820000895DC0159968D919C91009739F0DC0167
:10183000ED91FC910480F581E02D199490E080E019
:101840000895CF93DF931F92CDB7DEB76983DC0194
:10185000ED91FC910280F381E02D41E050E0BE016A
:101860006F5F7F4F19950F90DF91CF910895CF93C0
:10187000CFB7F89480918A04811127C0EFE0F9E096
:101880008491E5E5F9E09491E82FF0E0EE0FFF1F79
:10189000EA55F74FA591B491EC91E92321F461E069
:1018A00085E30E943B0861E085E30E94C7088CB590
:1018B00080618CBD8CB580648CBD61E084E30E9446
:1018C000C70861E083E30E94C70880918A048F5FA4
:1018D00080938A04CFBFCF910895089561E0FC0101
:1018E00084810E943B0880918B04811110928B04AB
:1018F00008958EBD00000DB407FEFDCF8EB508958E
:10190000AF92BF92CF92DF92EF92FF920F931F930D
:10191000CF93DF9300D000D01F921F92CDB7DEB7D8
:101920008C017B016A0180913D068333E1F458010B
:10193000A40EB51EA016B10609F46FC00E942F0AAE
:1019400080EF0E94790C812F0E94790C802F0E94D9
:10195000790C0F5F1F4FF70181917F010E94790C75
:101960000E94250AE7CF5B01A40EB51E8433C1F4A3
:101970000E942F0A19830A838D2D80688B83CC8265
:1019800064E070E0CE0101960E940B0AAE14BF0421
:1019900009F441C0F70181917F010E94790CF6CFD3
:1019A0000E942F0A0F3F110509F028F419820A83BB
:1019B00084E08B830CC017FD17C019820A8333E0C3
:1019C000169507953A95E1F7007E0C600B8386E04B
:1019D000C816D104A0F5F701DE011496EA15FB053F
:1019E00099F081918D93FACFC80126E0969587955D
:1019F0002A95E1F7807E19830A830115104C10F4B3
:101A00008461D7CF8C61D5CFB6016D5F7F4FCE019A
:101A100001960E940B0A0E94250AC60128960FB65D
:101A2000F894DEBF0FBECDBFDF91CF911F910F9114
:101A3000FF90EF90DF90CF90BF90AF90089563E05C
:101A400070E0CE0101960E940B0AF70181917F019F
:101A50000E94790CAE14BF04C1F7DDCFCF93DF93A2
:101A60001F92CDB7DEB7898341E050E0BE016F5FC2
:101A70007F4F90E080E00E94800C0F90DF91CF912B
:101A80000895DA01E0919804F0E0FE2FEE27E60FCA
:101A9000F71F90E0982F8827A901BD018E0F9F1F87
:101AA0000C94800CCF93DF931F921F92CDB7DEB7BB
:101AB00079836A8322E030E0AE014F5F5F4F60E1DF
:101AC00070E00E94410D0F900F90DF91CF9108952B
:101AD000CF93DF931F921F92CDB7DEB779836A83CE
:101AE00022E030E0AE014F5F5F4F64E070E00E94A3
:101AF000410D0F900F90DF91CF910895CF93DF9319
:101B00001F92CDB7DEB72091980430E0322F222704
:101B1000260F371F90E0982F8827498341E050E037
:101B2000BE016F5F7F4F820F931F0E94800C0F904A
:101B3000DF91CF9108958FEF0C94790C0F931F9341
:101B4000CF93DF93EC010E944F098B010E949B0D04
:101B50008F3F69F00E944F09601B710B6C177D0766
:101B6000A8F380E0DF91CF911F910F91089581E05C
:101B7000F9CF8CBD9DBD0895AF92BF92CF92DF92F9
:101B8000EF92FF920F931F93CF93DF931F92CDB7E6
:101B9000DEB78C015B016A01DC018D919C9111978C
:101BA000892B39F01296ED91FC91808191810E94F0
:101BB000B90DF80183858F3F19F060E00E943B0862
:101BC0007501CA0CDB1CEC14FD04B9F0D7018D9132
:101BD0007D018983F80180819181892B39F061E051
:101BE00070E0CE0101960E940B0AEDCFBE016F5F3F
:101BF0007F4FC8010E944406E6CFD8011B968C9106
:101C00008F3F19F061E00E943B0881E00F90DF9167
:101C1000CF911F910F91FF90EF90DF90CF90BF90E9
:101C2000AF900895FF920F931F93CF93DF93EB0133
:101C3000FC01178A168A2A81211109C02B812111E2
:101C400006C02C81211103C02D81222301F14115F1
:101C50005105E9F08A01FC01F08C80E591E00E94D9
:101C6000B90DAE014E5F5F4F24E030E06CE070E0F4
:101C70008F2D0E94410DB8018F2D0E94520D81E0E1
:101C800090E0DF91CF911F910F91FF90089580E038
:101C9000F7CFCF93DF93EC0180918B04811109C0C2
:101CA00081E080938B0480917D0990917E090E9450
:101CB000B90D60E08C81DF91CF910C943B088F923D
:101CC0009F92AF92BF92FF920F931F93CF93DF9398
:101CD000EC01F62E49015A018E81882389F08F810B
:101CE00098859C012F5F3F4F38872F838230924029
:101CF00018F40E949B0DF3CFCE010E946E0C1E8241
:101D0000CE010E94490E8CE291E00E949E0D8F2D23
:101D100080640E94790C08E110E0D501C401002E16
:101D200004C0B695A795979587950A94D2F70E9417
:101D3000790C08501109083F8FEF180771F785E9F2
:101D4000FF2021F028E087E8F2128FEF0E94790C43
:101D500010E00E949B0D8A8787FF04C01F3F11F08F
:101D60001F5FF7CFDF91CF911F910F91FF90BF9031
:101D7000AF909F908F900895AF92BF92CF92DF92D5
:101D8000EF92FF920F931F93CF93DF93EC016901C2
:101D9000C801820F931F8130924050F58E818823B5
:101DA00079F088819981AA81BB8184179507A6075C
:101DB000B70731F48F819885C816D90608F042C05C
:101DC000488359836A837B838B85833039F089E02C
:101DD000440F551F661F771F8A95D1F79A01AB01F3
:101DE00061E1CE010E945F0E882389F083E08D833C
:101DF000CE010E946E0C80E0DF91CF911F910F9178
:101E0000FF90EF90DF90CF90BF90AF9008950E9429
:101E10004F095B010E949B0D8A878F3F69F40E94E6
:101E20004F096A197B096D327140A0F38FE08D83F1
:101E3000CE010E946E0CDCCF8E3F89F418861F8283
:101E400081E08E838F8198858C159D0550F40E94CA
:101E50009B0D8F819885019698878F83F3CF8DE0B6
:101E6000E6CF6701E00EF11E0E949B0DF601819303
:101E70006F01EE15FF05C1F78F819885080F191FB7
:101E800018870F838985882319F001151240A0F067
:101E90008E81882389F08F8198859C012F5F3F4F29
:101EA00038872F838230924018F40E949B0DF3CF25
:101EB000CE010E946E0C1E8281E09ECFCF92DF92F7
:101EC000EF92FF920F93CF93DF93EC01690182E1D0
:101ED000411551056105710599F08B85833039F005
:101EE00089E0440F551F661F771F8A95D1F79A0125
:101EF000AB0168E1CE010E945F0E882319F084E0F7
:101F00008D832DC08EEF0E94790C76018EEFD81A4A
:101F1000F70181917F010E94790CEC14FD04C1F757
:101F20008FEF0E94790C8FEF0E94790C0E949B0D1D
:101F30008A878F71853071F4011116C0CE010E941D
:101F40006E0C81E0DF91CF910F91FF90EF90DF90C9
:101F5000CF90089581E18D83CE010E946E0CCE0159
:101F60000E946E0C80E0EECF88E592E00E949E0D0C
:101F7000811102C085E1C4CF20E030E0A9016DE00D
:101F8000CE010E945F0E882311F084E1B9CF0E9438
:101F90009B0D8111FACFD2CF0F9340918D045091B8
:101FA0008E0460918F047091900441155105610574
:101FB000710599F0082F2EE336E080913E0890914C
:101FC0003F080E945E0F882349F010928D04109202
:101FD0008E0410928F041092900481E00F91089566
:101FE0000F93CF93C82F80918C04811105C0C1E05D
:101FF0008C2FCF910F9108954091000250910102D2
:1020000060910202709103020C2F2EE336E0809162
:102010003E0890913F080E945E0F811102C0C0E00F
:10202000E7CFCC2321F381E00E94CC0F8823B9F3C2
:1020300010928C04DDCF8F929F92AF92BF92EF925D
:10204000FF920F931F93CF934B015C01C42F80919C
:10205000000290910102A0910202B0910302881542
:102060009905AA05BB0551F181E00E94F00F81118D
:102070000BC080E0CF911F910F91FF90EF90BF9028
:10208000AF909F908F9008958EE3E82E86E0F82E13
:1020900000E012E030E020E0B501A40180913E08AC
:1020A00090913F080E94BC0E882319F38092000291
:1020B00090920102A0920202B092030240918C041D
:1020C0004C2B40938C0481E0D5CF8F929F92AF929E
:1020D000BF92CF92DF92EF92FF92CF932FE739E03A
:1020E00030933F0820933E08882309F46DC040E0F8
:1020F00060E070E0CB010E941B1081110BC080E0FA
:10210000CF91FF90EF90DF90CF90BF90AF909F90D6
:102110008F9008958091FC078F7789F78091080848
:1021200090910908A0910A08B0910B088436910596
:10213000A105B10520F3C0900408D0900508E090F7
:102140000608F0900708C114D104E104F104B9F2C3
:1021500040E0C701B6010E941B10882381F28091E4
:10216000490690914A068115924049F6A0914E0683
:10217000AA2329F260914C0670914D0661157105F4
:1021800009F4BDCF20914B06222309F4B8CFA093C8
:102190009D0920938F0990E080E030E0E1E0F0E0DD
:1021A000C82FAF01082E02C0440F551F0A94E2F752
:1021B0002417350769F041E0480F019689309105F1
:1021C00079F7409398099BCFC12CD12C7601C0CFD1
:1021D00080939809209154063091550650E040E0D4
:1021E0002115310541F4209162063091630640913A
:1021F00064065091650620939009309391094093AD
:1022000092095093930946015701860E971EA11C0F
:10221000B11C80929E0990929F09A092A009B09251
:10222000A109E0914F06F0915006F093A409E093C4
:10223000A309B0E00E94F656DC01CB01880D991D80
:10224000AA1DBB1D8093A5099093A609A093A70979
:10225000B093A80925E0EE0FFF1F2A95E1F7E150A2
:10226000FE4FEF2FFF27E6958E0F9F1FA11DB11D7B
:102270008093990990939A09A0939B09B0939C0924
:102280008090510690905206B12CA12C811491049B
:1022900041F480905E0690905F06A0906006B0903A
:1022A0006106C81AD90AEA0AFB0AC80CD91CEA1C3A
:1022B000FB1C04C0F694E794D794C794CA95D2F750
:1022C000C0929409D0929509E0929609F0929709EC
:1022D00085EFC8168FE0D806E104F10428F48CE0FD
:1022E0008093A20981E00CCF80E125EFC2162FEF89
:1022F000D206E104F104A0F380916A0690916B0686
:10230000A0916C06B0916D068093A5099093A609E3
:10231000A093A709B093A80980E2E2CF4F925F9201
:102320006F927F928F929F92AF92BF92CF92DF92E5
:10233000EF92FF920F931F93CF93DF93EC01423004
:1023400051056105710590F480E0DF91CF911F91F7
:102350000F91FF90EF90DF90CF90BF90AF909F9044
:102360008F907F906F905F904F90089589859A85A8
:10237000AB85BC850196A11DB11D84179507A607E5
:10238000B70710F3CB88DC88ED88FE888F89803111
:1023900009F042C0BB27A72F962F852F480159016E
:1023A0002A013B01C80ED91EEA1EFB1E80910002C5
:1023B00090910102A0910202B0910302C816D906C1
:1023C000EA06FB0699F58F898031C1F5B301A201B8
:1023D000552766277727440F551F425C594FFA014E
:1023E0009182808280918C04816080938C048A89A0
:1023F000823080F08D819E81AF81B8858C0D9D1DCE
:10240000AE1DBF1D80938D0490938E04A0938F0406
:10241000B093900481E099CFDB01CA01E7E0B69563
:10242000A79597958795EA95D1F7B8CF40E0C70172
:10243000B6010E941B108111C6CF86CFB301A20145
:102440004F77552766277727440F551F440F551F91
:10245000425C594FFA0180829182A282B382C2CF3C
:102460008F929F92AF92BF92CF92DF92EF92FF92A4
:102470000F931F93CF93DF93FC0181859285A385F2
:10248000B4850196A11DB11D84179507A607B7074E
:1024900070F480E0DF91CF911F910F91FF90EF904A
:1024A000DF90CF90BF90AF909F908F9008958388DA
:1024B0009488A588B6888789803189F5BB27A72F9E
:1024C000962F852FE9016A017B018F01BC01CD01A7
:1024D000680D791D8A1D9B1D80900002909001025D
:1024E000A0900202B090030286169706A806B906CD
:1024F00001F5F8018789803111F5DD24EE24FF24F0
:10250000F601EE0FFF1FE25CF94F80819181B0E090
:10251000A0E088839983AA83BB8381E0BBCFDB01E2
:10252000CA01C7E0B695A79597958795CA95D1F743
:10253000C9CF40E00E941B108111DBCFAACFE894E5
:10254000C7F8DD24EE24FF24F601EE0FFF1FEE0F87
:10255000FF1FE25CF94F80819181A281B381BF703E
:10256000D8CF4F925F926F927F92AF92BF92CF92ED
:10257000DF92EF92FF920F931F93CF93DF9300D0E0
:102580001F92CDB7DEB78C0149835A836B837C835E
:102590005901C12CD12C7601412C82E0582E612C9E
:1025A000712C49815A816B817C819E012F5F3F4F45
:1025B000C8010E943012882339F1F8018585A301F2
:1025C000920104C0220F331F441F551F8A95D2F772
:1025D000DA01C901C80ED91EEA1EFB1E49815A81C3
:1025E0006B817C818789803111F188EF9FEFAFEF9C
:1025F000BFE0481759076A077B0798F2F501C082C8
:10260000D182E282F38281E00F900F900F900F90C1
:10261000DF91CF911F910F91FF90EF90DF90CF90BE
:10262000BF90AF907F906F905F904F90089588EF2C
:102630009FEFA0E0B0E0DDCFCF93DF93FC012581D9
:10264000222321F080E0DF91CF910895EC01809169
:10265000A209803159F582E08583178A108E118E88
:10266000128E8091A3099091A409B0E0A0E025E02A
:10267000880F991FAA1FBB1F2A95D1F7838B948BB4
:10268000A58BB68B8BE899E09C8F8B8F81E08C8338
:102690001E821F82188619861A861B861C861D8636
:1026A0001E861F86188A198A1A8ACDCF803251F663
:1026B00083E085834091A5095091A6096091A709FF
:1026C0007091A809478B508F618F728F9F012D5E8B
:1026D0003F4F8BE899E00E94B1128111D3CFB2CF66
:1026E0008F929F92AF92BF92CF92DF92EF92FF9222
:1026F0000F931F93CF93DF93EC018D8181110EC057
:1027000080E0DF91CF911F910F91FF90EF90DF90CC
:10271000CF90BF90AF909F908F9008950B891C89A8
:102720002D893E89041715072607370748F34A0104
:102730005B01823031F48A869B86AC86BD8681E05F
:10274000E0CF81149104A104B10449F41E821F82D8
:10275000188619861A861B861C861D86F0CF0A8568
:102760001B852C853D85EB8DFC8D858590E009963C
:10277000B901A8014150510961097109082E04C02D
:1027800076956795579547950A94D2F77501640138
:10279000E1E0CE1AD108E108F10804C0F694E7940C
:1027A000D794C7948A95D2F7C416D506E606F706DD
:1027B00020F0012B022B032B11F58F89988DA98D09
:1027C000BA8D8E839F83A887B9878E010A5F1F4FBA
:1027D000C114D104E104F10409F4ADCF4E815F814D
:1027E0006885798598018B8D9C8D0E94301291E0CF
:1027F000C91AD108E108F1088111EACF81CFC41AC2
:10280000D50AE60AF70AE1CF3F924F925F926F92A4
:102810007F928F929F92AF92BF92CF92DF92EF9270
:10282000FF920F931F93CF93DF93CDB7DEB72C9713
:102830000FB6F894DEBF0FBECDBF5C01DC015B9626
:102840008D909C905C9716964D905D906D907C90CD
:102850001997411451046104710409F468C0BFEF71
:102860004B1A5B0A6B0A7B0A312CF4018185928535
:10287000A385B4859C01AD012F5F3F4F4F4F5F4F44
:1028800029873A874B875C87730162011D821E820C
:102890001F821886F40181859285A385B4852D81D8
:1028A0003E814F815885281739074A075B0708F092
:1028B00056C089859A85AB85BC858C159D05AE056E
:1028C000BF0550F482E0C82ED12CE12CF12C92E00F
:1028D000492E512C612C712C9E012F5F3F4FB70167
:1028E000A601C4010E9430128823C9F189819A810E
:1028F000AB81BC81892B8A2B8B2B09F126013701F7
:102900009FEF491A590A690A790A2D813E814F8140
:1029100058852F5F3F4F4F4F5F4F2D833E834F832F
:1029200058873FEFC31AD30AE30AF30AB3CFF4017F
:1029300040805180628073803324339496CFC414D6
:10294000D504E604F70409F70FEF1FEF2FEF3FE080
:10295000B701A601C4010E948E11811119C080E047
:102960002C960FB6F894DEBF0FBECDBFDF91CF918E
:102970001F910F91FF90EF90DF90CF90BF90AF909D
:102980009F908F907F906F905F904F903F900895B1
:10299000D50116964D915D916D917C9119974115D8
:1029A00051056105710539F097018601C4010E9446
:1029B0008E118823A1F2D5011696CD92DD92ED926B
:1029C000FC921997332051F0D701C6010196A11D41
:1029D000B11DF40180839183A283B383F5018789BC
:1029E000908DA18DB28D892B8A2B8B2B39F484810C
:1029F000C78AD08EE18EF28E80688483F50184814F
:102A00008062848381E0ACCF2F923F924F925F929D
:102A10006F927F928F929F92AF92BF92CF92DF92EE
:102A2000EF92FF920F931F93CF93DF9300D0CDB718
:102A3000DEB7FC018581811118C08FEF9FEF0F90E9
:102A40000F900F90DF91CF911F910F91FF90EF901A
:102A5000DF90CF90BF90AF909F908F907F906F90BE
:102A60005F904F903F902F900895848180FFE5CF35
:102A7000438954896589768982859385A485B5853E
:102A8000312C212C481759076A077B0719F022249B
:102A90002394312C6F012101CE0101963C01DF010D
:102AA0001696BB83AA834114510409F4C5C0F601EC
:102AB00042855385648575854A01F1E09F22D601E0
:102AC0005B968D919C915C978A019B01E9E036951C
:102AD000279517950795EA95D1F71596EC91E23071
:102AE000E9F5FC01628D738D848D958D600F711FEA
:102AF000821F931FA12C22E0B22EA818B9084A14F5
:102B00005B0408F45201F601248126FD04C0A114DF
:102B1000F2E0BF0671F400910002109101022091D1
:102B2000020230910302061717072807390709F038
:102B30005EC040E00E941B10882309F47ECFC401D0
:102B4000825C994FD3019C012A0D3B1DFC012E177D
:102B50003F0709F46CC041914D93F9CFDC01149605
:102B6000BC90BA94B0228114910479F4B1100DC0D4
:102B7000452B462B472B69F5F6018789908DA18D52
:102B8000B28D86839783A087B187D6015B96ED913E
:102B9000FC915C9716966D917D918D919C91199702
:102BA0006250710981099109258504C0660F771F5C
:102BB000881F991F2A95D2F70685178520893189A4
:102BC000600F711F821F931F6B0D711D811D911D61
:102BD00091CFD60116964D915D916D917C9119978B
:102BE0002A813B810E9430128111CFCF26CF730101
:102BF00085019401AB01BC0180913E0890913F0892
:102C00000E94BC0E882309F418CF6A0C7B1CF601C5
:102C100082859385A485B5858A0D9B1DA11DB11D57
:102C200082879387A487B5874A185B083CCF281B07
:102C3000390B620E731EEBCF2A94232809F0FDCEC8
:102C4000898190E0FCCEFC01818D928D009711F07E
:102C50000C9404158FEF9FEF08950F931F93CF935C
:102C6000DF93EC01898D9A8D10E000E0009799F0D8
:102C70000E9404158C010F3F100769F0898D9A8D11
:102C8000FC01428553856485758541505109610970
:102C900071090E947013C801DF91CF911F910F91AC
:102CA00008951F93CF93DF93FC0125812223D1F157
:102CB000162FEC01848187FF2AC06685778580897D
:102CC000918941E00E941B10882361F1EA8980E22A
:102CD000E89FF0011124E25CF94F309719F18D81E2
:102CE000823040F48B899C89AD89BE89848F958F11
:102CF000A68FB78F8F89988D938F828F8F89988DAC
:102D0000A98DBA8DB58BA48B8C818F778C83111193
:102D100003C08C818F7E8C83812FDF91CF911F9197
:102D20000C94F00F80E0DF91CF911F910895FF92F6
:102D30000F931F93CF93DF93EC018D81813041F08E
:102D400090E080E0DF91CF911F910F91FF90089567
:102D50008C8181FFF5CF82FD1BC000913E08109150
:102D60003F08C8010E94490E0E949B0DF82EC80121
:102D70000E946E0C8FEFF812E3CF8C8185FF1BC091
:102D800060E0CE010E9451168C818F7D8C83D8CF5C
:102D90004B895C896D897E898A859B85AC85BD85DB
:102DA00084179507A607B707C1F2CE010E947013DA
:102DB0008111D3CFC5CF40918D0450918E04609185
:102DC0008F0470919004452B462B472B21F080E017
:102DD0000E94CC0FB5CF80618C832A853B853170F2
:102DE00080E092E0821B930BADCFCF93DF93EC0199
:102DF00061E00E945116882311F01D8281E0DF916D
:102E0000CF910895FC01818D928D009719F061E0BA
:102E10000C94511608952F923F924F925F926F92A9
:102E20007F928F929F92AF92BF92CF92DF92EF925A
:102E3000FF920F931F93CF93DF9300D01F921F92A7
:102E4000CDB7DEB77C015B01342E5D83DC011596C6
:102E50008C911597813009F0CEC014962C9021FEEC
:102E6000CAC022FCB4C0C32CDD8022947FE027229C
:102E70002094B22DB1702B2ED7011A964D915D91F1
:102E80006D917C911D97C114D10409F428C15B9602
:102E90008D919C915C97FC0174807A948A019B01CE
:102EA00069E036952795179507956A95D1F77022B1
:102EB0008A011170711020C001151105E9F41696F0
:102EC0004D915D916D917C91199741155105610569
:102ED000710509F099C057968D919D910D90BC9107
:102EE000A02D0097A105B10509F0B0C0C7010E944F
:102EF0000414882309F47FC080E092E0801B910BCA
:102F000046018C159D0508F44C01D7015B964D9147
:102F10005C915C9716968D919D910D90BC91A02D22
:102F20000297A109B109FA01258504C0880F991FEC
:102F3000AA1FBB1F2A95D2F74685578560897189DC
:102F4000840F951FA61FB71F9C01AD01270D311DD2
:102F5000411D511D29013A01811432E0930609F007
:102F60007BC08091000290910102A0910202B09179
:102F7000030284159505A605B70559F48FEF9FEF59
:102F8000DC018093000290930102A0930202B093AF
:102F90000302022D9501B301A20180913E08909198
:102FA0003F080E945E0F882331F19EEFB91AC818BE
:102FB000D908F70182859385A485B585880D991D6B
:102FC000A11DB11D82879387A487B58755CFF701CF
:102FD000438954896589768982859385A485B585D9
:102FE000481759076A077B0709F43DCFC7010E94BC
:102FF0007013811138CF81E090E0D70113969C9334
:103000008E93129780E007C09E012F5F3F4F0E9472
:103010003012811102C090E079C089819A81AB8120
:10302000BC81F701238D348DF901278948EF5FEFCB
:1030300060E070E0203121F048EF5FEF6FEF7FE05C
:1030400084179507A607B70708F050CFF7018683C6
:103050009783A087B18750CF0115110599F5D70146
:103060001A964D915D916D917C911D9753968D911E
:103070009D910D90BC91A02D481759076A077B07B9
:1030800008F181E00E94F00F882309F4B4CF409248
:10309000000250920102609202027092030280913B
:1030A0008C04816080938C04C801825C994FD501A7
:1030B0009C01280D391DFC012E173F0759F04D9139
:1030C0004193FACF41E0C301B2010E941B1081116C
:1030D000EBCF91CF281B390BA20EB31E68CFF7019F
:1030E00083899489A589B68984179507A607B707A8
:1030F00038F48481438B548B658B768B8068848312
:10310000F701848183FD1AC0832D9D810F900F905C
:103110000F900F900F90DF91CF911F910F91FF9023
:10312000EF90DF90CF90BF90AF909F908F907F9067
:103130006F905F904F903F902F90089561E0C7018E
:103140000E945116882309F456CFDECFCF93DF9328
:103150001F92CDB7DEB7698341E050E0BE016F5FDB
:103160007F4F0E940B170F90DF91CF910895CF935F
:10317000DF93EC01E98DFA8D309749F481E090E01E
:103180009B838A8390E080E0DF91CF910895138242
:103190001282898D9A8D0E940B17E98DFA8D2281FA
:1031A0003381232B59F7F0CFFF920F931F93CF93C7
:1031B000DF93FC0177FD72C08085918568177907E0
:1031C0000CF06CC057FD6AC082859385481759077B
:1031D0000CF064C08689823009F466C0833009F43B
:1031E00074C0813041F484819581841B950BAB01BF
:1031F000BC016150710981A592A5681779070CF48B
:10320000CB0192A781A783A594A5481759070CF471
:10321000CA0194A783A785A596A5861797070CF4DE
:10322000CB0196A785A787A590A9841795070CF4CD
:10323000CA0190AB87A787A9813051F421303105AD
:1032400009F44CC008F470C02230310509F491C073
:1032500087A9843019F5A481B5814A9FC0014B9F8D
:10326000900D5A9F900D112497FD01969595879585
:10327000AB0177FF02C04F5F5F4F55954795840FB5
:10328000951F07A0F0A5E02DE80FF91F908160FDC4
:1032900095C09F702295207F922B9083DF91CF91D4
:1032A0001F910F91FF900895848195818C01061BD9
:1032B000170BB8016150710986819781DC01A41B4D
:1032C000B50BAD014150510996CF86819781861B80
:1032D000970BBA01AC01415051098DCFCA0157FD7E
:1032E0000796C3E095958795CA95E1F7C481D58186
:1032F0008C9FD0018D9FB00D9C9FB00D1124CD01EE
:10330000860F971FA7A1B0A5A80FB91FEA01C77024
:10331000DD2781E090E08C0101C0000FCA95EAF73B
:103320008C91802B8C9394CFCA0157FD0796B3E004
:1033300095958795BA95E1F7C481D5818C9FD00189
:103340008D9FB00D9C9FB00D1124CD01860F971F4E
:10335000A7A1B0A5A80FB91FEA01C770DD2781E0BA
:1033600090E001C0880FCA95EAF780959C91892367
:10337000D9CFCA0157FD0796A3E095958795AA95E1
:10338000E1F7C481D5818C9FD0018D9FB00D9C9FAA
:10339000B00D1124CD01860F971FA7A1B0A5A80FCE
:1033A000B91FEA01C770DD2781E090E08C0101C000
:1033B000000FCA95EAF78C918027B4CF907F2F70C9
:1033C000292B20836BCF0895FC016370668B848169
:1033D000958126813781613039F0633029F09187FA
:1033E0008087338722870895318720879387828754
:1033F00008952F923F924F925F926F927F928F9299
:103400009F92AF92BF92CF92DF92EF92FF920F9373
:103410001F93CF93DF93CDB7DEB76A970FB6F894BB
:10342000DEBF0FBECDBF9A8F898F7A8369834A0131
:10343000D22E18870F833701BC2CDC0159962D91B1
:103440003C915A972115310509F015C118968D91B7
:103450009C911997681779070CF0D7C11A968D912E
:103460009C91481759070CF0D0C14C2C512CB6E058
:10347000CB9E600D711D11247C876B871616170675
:103480000CF0C3C1EA2DF0E0FA87E98793E0EE0F74
:10349000FF1F9A95E1F7F88BEF87CF01840F951FF7
:1034A000181619060CF0B1C1A98DBA8D58968C91D9
:1034B000811104C0BFEABD1508F4D394A98DBA8D5B
:1034C000ED91FC9111970284F385E02DCD011995C2
:1034D000B5E0DB9EC0011124E981FA81FC83EB8316
:1034E000312C212C9C012A563C4F388F2F8B4A2D92
:1034F00050E05E8B4D8BEF89F88DE20DF31D44910A
:103500009E828D82D12CC12C69817A81620D731DBE
:103510007A8B698B842F90E09C8B8B8BE98DFA8D55
:10352000A081B18140FF82C0F1E0BF126FC0AF1235
:103530006DC01C96ED91FC912F813885A4014C0D36
:103540005D1D69897A89898D9A8D1995EB89FC8928
:10355000F595E7954E2F5FEFC51AD50A6D817E81EF
:103560008D899E89680F791F7E836D8398E0C916C7
:10357000D10481F6AFEF2A1A3A0AEB81FC81E40DFF
:10358000F51DFC83EB83F5E02F16310409F0B3CF72
:103590002F81388526153705B9F0A98DBA8DED91A3
:1035A000FC91B1E0BB1257C0AB1255C069817A8162
:1035B0006B5F7F4F0088F189E02D830128E030E0C8
:1035C000A401898D9A8D1995A98DBA8DED91FC91E3
:1035D00011970688F789E02DCD016A960FB6F89409
:1035E000DEBF0FBECDBFDF91CF911F910F91FF9036
:1035F000EF90DF90CF90BF90AF909F908F907F9093
:103600006F905F904F903F902F9019941E96ED9180
:10361000FC91EF80F88409851A8592014D815E81C5
:103620006B817C81898D9A8D199590CF2F813885FA
:103630002615370509F48ACF31E0B31207C0A3126B
:1036400005C01C96ED91FC91930178CF1E96ED91EB
:10365000FC917301E0CF6B857C8564197509068444
:10366000F785E02D73010F8518899201A401898DDA
:103670009A8D1995A9CFF901349694913297459175
:103680005491D91AB7E0DB9E400D511D1124F90168
:10369000259134913C8B2B8BFA0125903490FA01C3
:1036A0003296749031963491398B3296649031967B
:1036B000449041E04C1518F04A1508F07FC0662D83
:1036C000062C000C770B7C836B83842D042C000C60
:1036D000990B9E838D83A98DBA8DED91FC911197E5
:1036E0000284F385E02DCD011995512CD12CC12CEC
:1036F000EA2DF0E0FA87E9872B2D30E03C872B8715
:10370000A401440D511D47FC5A95588F4F8B698178
:103710007A81660D711D67FC7A957E876D87798940
:10372000C71608F051CF2C2D30E04D815E81420F3D
:10373000531FA985BA854A9FC0014B9F900D5A9F80
:10374000900D1124FC01E80DF91DF88BEF87852DF4
:10375000612C4F89588D420F531F5E8B4D8B671420
:1037600008F050C044244394480E877041F4C101CE
:103770000196EB89FC89E20DF31DD4901C01D7FE64
:1037800019C0A98DBA8DED91FC91662D70E0B1E064
:10379000BB1219C0AB1217C02D853E85620F731F77
:1037A0000484F585E02D2F8138854D895E89898DCA
:1037B0009A8D1995DD0C6394842DD1CF1E821D82C4
:1037C0001C821B8288CF4B815C81640F751FAB8587
:1037D000BC856A9FC0016B9F900D7A9F900D11244C
:1037E00069817A81680F791F0684F785E02DEF8063
:1037F000F88409851A859D014F855889898D9A8D90
:103800001995D8CF570CC3948ACF6A960FB6F894FF
:10381000DEBF0FBECDBFDF91CF911F910F91FF9003
:10382000EF90DF90CF90BF90AF909F908F907F9060
:103830006F905F904F903F902F9008958F929F923E
:10384000AF92CF92EF92FF920F931F93CF93DF939C
:10385000EC01262F898D9A8D009709F051C06A30AE
:10386000D1F41D861C868D8948E0849F9001112427
:103870008E859F85820F931F9F878E8781E090E0C2
:10388000DF91CF911F910F91FF90EF90CF90AF906C
:103890009F908F9008956D3089F3CC88AD888F8983
:1038A0008823C1F08C859D8536E0C39E800D911DD7
:1038B0001124488559854817590764F44E855F855A
:1038C0001D861C8638E0A39EC0011124840F951F1D
:1038D0009F878E87EA88FB88088919894E855F85CE
:1038E0006C857D85CE010E94F9192C898C859D857A
:1038F00046E0249F800D911D11249D878C87BECFAB
:103900006A3069F41D861C86FC013896E4912D8985
:103910008E859F85E29F800D911D1124ADCF6D3066
:1039200009F4ACCFFC0134963491631708F4A6CFA8
:103930003296E491E61708F4A1CFFC013296859007
:103940009490462F431B342F47E0349F800C911CEA
:103950001124F401329634913196E4913323A9F184
:10396000EE2399F1CC88F4013596E491AD884F8926
:10397000442301F10E2E000CFF0BE30FF11DCE9E30
:10398000A001CF9E500D11246C857D85460F571FD9
:1039900068857985641775076CF44E855F851D868B
:1039A0001C86FC013896E491AE9E400D511D1124F9
:1039B0005F874E87EA88FB88088919894E855F856D
:1039C0006C857D85CE010E94F919F4013496E4914D
:1039D0002C898C859D85E29F800D911D11248DCFB2
:1039E0006F927F928F929F92AF92BF92CF92DF920F
:1039F000EF92FF920F931F93CF93DF93EC016B0134
:103A00005A0139014801E881F9810284F385E02DEA
:103A10001995E881F9810288F389E02D87019301E6
:103A2000A501B601CE011995A501480D591D4150BA
:103A30005109E881F9810288F389E02D9301B601EB
:103A4000CE011995E881F9810088F189E02D940172
:103A5000A501B601CE011995C60CD71CB60161505F
:103A60007109E881F9810088F189E02D9401A501AF
:103A7000CE011995E881F9810688F789E02DCE01FC
:103A8000DF91CF911F910F91FF90EF90DF90CF903A
:103A9000BF90AF909F908F907F906F9019946F928E
:103AA0007F928F929F92AF92BF92CF92DF92EF92CE
:103AB000FF920F931F93CF93DF935C01EB016A0199
:103AC000490138018701DC01ED91FC916217730710
:103AD00019F5641675062CF0962D872D3A01C92E1E
:103AE000D82E9601261937092F5F3F4F048CF58D8C
:103AF000E02DA301BE01C5011995DF91CF911F9162
:103B00000F91FF90EF90DF90CF90BF90AF909F907C
:103B10008F907F906F9008954615570591F4261762
:103B2000370724F0892D4B01C22FD82F9E01281969
:103B300039092F5F3F4F068CF78DE02DA601B401A8
:103B4000DACF0284F385E02D1995D501ED91FC9132
:103B50000488F589E02D83019401A601BE01C50109
:103B60001995D501ED91FC910688F789E02DC501E5
:103B7000DF91CF911F910F91FF90EF90DF90CF9049
:103B8000BF90AF909F908F907F906F901994EF921D
:103B9000FF920F931F93DC011A960D911C911B97B6
:103BA00018962D913C911997ED91FC9100A0F1A1EF
:103BB000E02D7B0150E040E070E060E019951F913E
:103BC0000F91FF90EF9008954F925F926F927F92C6
:103BD0008F929F92AF92BF92CF92DF92EF92FF921D
:103BE0000F931F93CF93DF936C012B015A0139017F
:103BF0004801DC01ED91FC910284F385E02D1995DB
:103C0000E201640C751CD601ED91FC91C615D70537
:103C10005CF40088F189E02D87019401A501BE01C3
:103C2000C60119952196EFCF0688F789E02DC601C8
:103C3000DF91CF911F910F91FF90EF90DF90CF9088
:103C4000BF90AF909F908F907F906F905F904F90BC
:103C500019948F929F92AF92BF92CF92DF92EF9280
:103C6000FF920F931F93CF93DF93EC015B014A0107
:103C70006901E881F9810284F385E02D19959501A8
:103C80002C0D3D1D21503109E881F9810488F58909
:103C9000E02D78018401A401B501CE011995E881D8
:103CA000F9810688F789E02DCE01DF91CF911F9130
:103CB0000F91FF90EF90DF90CF90BF90AF909F90CB
:103CC0008F9019948F929F92AF92BF92CF92DF9272
:103CD000EF92FF920F931F93CF93DF93EC015B0161
:103CE0004A0169017801E881F9810284F385E02DB8
:103CF0001995C80CD91C860101501109E881F98178
:103D00000488F589E02D9501A401B501CE0119952E
:103D1000E881F9810688F789E02DCE01DF91CF9106
:103D20001F910F91FF90EF90DF90CF90BF90AF90D9
:103D30009F908F901994EF92FF920F931F93DC0145
:103D4000ED91FC9100A0F1A1E02D19951F910F912B
:103D5000FF90EF9008950F931F93DC01ED91FC917C
:103D6000068CF78DE02D19951F910F9108950F93F3
:103D70001F93DC01ED91FC91048CF58DE02D1995DC
:103D80001F910F910895DC01ED91FC910084F18564
:103D9000E02D19942F923F924F925F926F927F92F3
:103DA0008F929F92AF92BF92CF92DF92EF92FF924B
:103DB0000F931F93CF93DF9300D000D0CDB7DEB722
:103DC0003C016A013E832D83FC82EB825801A41AD8
:103DD000B50AB7FE03C0B194A194B1088D809E804E
:103DE000861A970A97FE03C09194819491088A14C9
:103DF0009B045CF0902F812F0D811E819D838E830B
:103E00009C2D8D2D6B01692F782F0C151D055CF0F5
:103E10009D818E817E836D83692F782F902F812FD6
:103E20008601C92ED82E1601201A310A2B012D81A8
:103E30003E81421A530A57FE03C0519441945108DF
:103E4000710137FE03C03FEFE31AF30AF594E794DC
:103E50008D819E81861797075CF5A1E0B0E0BA835B
:103E6000A983C016D1064CF1D301ED91FC910484D5
:103E7000F585E02D2B813C81A8016D817E818A141E
:103E80009B041CF04D815E81B801C3011995E418B3
:103E9000F508F7FE0AC02D813E8189819A81280F9D
:103EA000391F3E832D83E20CF31C0F5F1F4FD9CFC8
:103EB0002FEF3FEF3A832983D4CF26960FB6F8949D
:103EC000DEBF0FBECDBFDF91CF911F910F91FF904D
:103ED000EF90DF90CF90BF90AF909F908F907F90AA
:103EE0006F905F904F903F902F90089520916704BE
:103EF000260F3327331F21323105ECF420917A0845
:103F0000FC0190E080E0243069F082E00895A09107
:103F100067042191AC01495B5B4FA40FB52FB11D24
:103F20002C930196861798F380916704680F60932D
:103F3000670480E0089581E0089510927A0881E096
:103F4000809379081092540861E084E10E943B0854
:103F500061E085E10E943B08E9EBF0E080818E7F23
:103F6000808380818D7F808388E48093B80085E49E
:103F70008093BC000895CF93DF9391E09093460423
:103F80008823B9F0C091B800D091BA008091BC00EC
:103F90008A7B8093BC0060E084E10E943B0860E083
:103FA00085E10E943B080E949D1FD093BA00C093F8
:103FB000B800DF91CF9108958F929F92AF92BF92F8
:103FC000CF92DF92EF92FF920F931F93CF93DF93E5
:103FD000D091A308D13208F0D7C0182FC091A20801
:103FE0000E94F8086B017C0180917A0881116BC0F6
:103FF00082E080937A08109379088FEF8093780895
:1040000010927708D0937608A2E8B8E0E6E5F8E0E9
:1040100080E0D81391C01092550880915508CC0FBC
:10402000C82BC093550880915408813009F088C08E
:10403000109254080E94F8086B017C018091550889
:104040008093BB0080917C0890917D08A0917E08B0
:10405000B0917F08892B8A2B8B2BA1F00E94F80846
:1040600000917C0810917D0820917E0830917F0896
:104070006C197D098E099F0906171707280739074C
:1040800008F442C08091BC0083FDD8CF85EC8093BA
:10409000BC000E94F8086B017C0180917A08823094
:1040A00009F450C0809178088F3F09F46FC0809167
:1040B0007808803209F46CC080917808803309F464
:1040C00069C084E026C080917C0890917D08A09111
:1040D0007E08B0917F08892B8A2B8B2B09F484CF23
:1040E0000E94F80880907C0890907D08A0907E083F
:1040F000B0907F086C197D098E099F098616970676
:10410000A806B90608F070CF80917B080E94BB1FFB
:1041100085E0109281081092A30810928008DF9128
:10412000CF911F910F91FF90EF90DF90CF90BF90B4
:10413000AF909F908F9008959D9191938F5F69CFDD
:1041400085EEA5CF80917C0890917D08A0917E0896
:10415000B0917F08892B8A2B8B2B09F49ECF0E946C
:10416000F80800917C0810917D0820917E0830911C
:104170007F086C197D098E099F0906171707280704
:10418000390708F08ACFC0CF81E0C3CF80E0C1CF2C
:1041900082E0BFCF83E0BDCFCF92DF92EF92FF925C
:1041A0000F931F93CF93DF93DA01A00FB11FEC01A0
:1041B000EC81FD81EA17FB0710F490E024C07A013E
:1041C0006B0189819A81488151E050938008409326
:1041D000A208109281081092A308012BF1F48981A2
:1041E0009A81DC01ED91FC910280F381E02DA70121
:1041F000B6011995E816F90601F781E00E94DC1F67
:1042000091E08111DACF892FDF91CF911F910F912A
:10421000FF90EF90DF90CF90089521153105F9F2CE
:10422000DC01ED91FC910280F381E02D41E050E052
:10423000B9011995019709F6D2CF0F931F93FC018D
:10424000678350874187BC01695F7F4F10E000E0C2
:1042500030E020E043E050E0808191810E94CC205A
:104260001F910F910895CF93DF93EC0180E091E0CF
:10427000442311F090E080E0AB0150686B817C81B9
:10428000462B572B6D817E81462B572B482B592B64
:1042900061E0CE010E941D2140E050E863E0CE01C4
:1042A0000E941D2150E040E062E0CE01DF91CF91FD
:1042B0000C941D212F923F924F925F926F927F92AA
:1042C0008F929F92AF92BF92CF92DF92EF92FF9226
:1042D0000F931F93CF93DF9300D000D000D01F9295
:1042E000CDB7DEB77C0180E48D83D70116962D9182
:1042F0003C91C901079697FD079663E095958795D0
:104300006A95E1F78887F70124813581422E83A5DC
:1043100094A597FD079653E0959587955A95E1F7F3
:10432000582ED7019996CC904C1408F4C22EF70160
:1043300045A556A557FD40E0B90177277A876987DB
:10434000AC2DB0E0BF83AE831D01289F200C311C33
:1043500011244394440EB8855B1608F0A5C0F701FC
:10436000A7A0B0A4A20CB31C8481D42CD81ADC184A
:10437000058CF68DE02D90EB950DD701DA968C919A
:104380002E813F81280F311D44E0359527954A95B0
:10439000E1F7205F8C0D8F70309709F463C0848043
:1043A0009580B1E08B1A91081A8219829A832B8327
:1043B0008C83F701278D30A141A152A160E074E206
:1043C00084EF90E00E94D4562051310941095109EF
:1043D00056954795379527952093B80010E000E053
:1043E00030E020E044E050E0BE016F5F7F4FD70136
:1043F0005D968D919C910E94CC20DD20B1F0982C8F
:10440000D81408F49D2C692C712C01E010E09E0159
:104410002B5F3F4FA301B501F701858D968D0E945B
:10442000CC20A60CB71CD918E8CFD70193962D91B4
:104430003D914D915C91969760E074E284EF90E03D
:104440000E94D4562051310941095109569547958A
:10445000379527952093B8005394E985FA852E0E59
:104460003F1E79CF99832A838B8360E0F70181A96E
:104470000E943B0843E050E0BE016F5F7F4FD701D1
:104480005B968D919C910E94BC0D61E0F70181A922
:104490000E943B084D2D50E0B501D7015B968D91F0
:1044A0009C910E94BC0DD8CF80E094E0D7019A96F1
:1044B0009C938E9399979C969C938E939B978FEF4A
:1044C0009FEF9E969C938E939D97D0969C938E93F0
:1044D0009F972A960FB6F894DEBF0FBECDBFDF912F
:1044E000CF911F910F91FF90EF90DF90CF90BF90F1
:1044F000AF909F908F907F906F905F904F903F9084
:104500002F900895CF92DF92EF92FF920F931F9317
:10451000CF93DF931F92CDB7DEB78C016B01FC0107
:10452000858D968DE42EF12C009799F0198201E08B
:1045300010E09E012F5F3F4FA7010E94CC200F90FB
:10454000DF91CF911F910F91FF90EF90DF90CF906F
:10455000089560E081A90E943B08A701B601F80117
:10456000838D948D0E94BC0DEACF0F931F93CF9340
:10457000DF9300D0CDB7DEB78C016B83FC01858D56
:10458000968D0097B1F01A8219826A8310E000E0DC
:1045900030E020E042E050E0BE016F5F7F4F0E94BC
:1045A000CC200F900F900F90DF91CF911F910F9122
:1045B000089560E081A90E943B0841E050E0BE01FF
:1045C0006D5F7F4FF801838D948D0E94BC0DE9CF04
:1045D000611103C066EA0C94B52267EAFCCFCF9361
:1045E000DF93EC018B818823A1F0888191E0909387
:1045F00080088093A208109281081092A30881E09D
:104600000E94DC1F91E0811190E0892FDF91CF9112
:104610000895109245081092440810928108109253
:10462000A3080E949D1F82E396E090934308809325
:10463000420883E396E0909341088093400881E02C
:104640008B83CE010E94EF22982F8111CECFDDCF38
:10465000E091450880914408E81730F4F0E0E7560F
:10466000FB4F808190E008958FEF9FEF0895909128
:104670004508809144082FEF3FEF981748F4E92F41
:10468000F0E0E756FB4F208130E09F5F90934508B4
:10469000C90108958091440890914508891B990BA0
:1046A0000895CF92DF92EF92FF920F931F93CF93D3
:1046B000DF937C01CB018A0120918008222389F0BD
:1046C000EB016B01C40ED51ECC15DD0569F06991B7
:1046D000D701ED91FC910190F081E02DC701199572
:1046E000F3CF642F0E94761FC801DF91CF911F91F5
:1046F0000F91FF90EF90DF90CF900895CF93DF93CD
:104700001F92CDB7DEB76983209180082223F9F08C
:104710002091A308203258F021E030E0FC013383DF
:10472000228390E080E00F90DF91CF9108958091F7
:104730008108E82FF0E0EE57F74F998190838F5F63
:10474000809381088093A30881E090E0ECCF61E042
:10475000CE0101960E94761FF7CFFC0184859585D6
:104760000895FC018489958908952BEE32E0FC01BF
:1047700031832083FB014089518962897389FC015F
:1047800042835383648375830895DC01ED91FC912A
:10479000048CF58DE02D199490E080E008952F921F
:1047A0003F924F925F926F927F928F929F92AF92C1
:1047B000BF92CF92DF92EF92FF920F931F93CF930E
:1047C000DF9300D01F921F92CDB7DEB77C01DC01D2
:1047D00017961C925C01B7E0AB0EB11C10E000E034
:1047E00030E020E041E050E0B501FC0180819181A2
:1047F0000E94CC20D7010D90BC91A02DBA83A98333
:10480000D12CC12C82E0282E312CE981FA818481BF
:10481000958181010C191D098017910708F48C01FD
:10482000A981BA81BC91BD830E94F8082B013C018B
:1048300080917A08811177C00B83013210F0F0E289
:10484000FB8321E020937A08C101801B910BC816DD
:10485000D90608F420E0209379088FEF8093780838
:10486000109277088B8181508093760891E0909325
:10487000550880915508AD81AA0FA82BA093550823
:1048800080915408813009F09AC0109254080E9417
:10489000F8082B013C01809155088093BB00809162
:1048A0007C0890917D08A0917E08B0917F08892BAB
:1048B0008A2B8B2BA1F00E94F80820917C08309164
:1048C0007D0840917E0850917F086419750986091A
:1048D0009709261737074807590708F445C08091FC
:1048E000BC0083FDD8CFB5ECB093BC000E94F808A3
:1048F0002B013C0180917A08813009F464C08091D9
:104900007708FB818F1718F4209177082B83A6E591
:10491000B8E0E9E9F4E080E09B81891751F19D91CD
:1049200091938F5FF9CF80917C0890917D08A09141
:104930007E08B0917F08892B8A2B8B2B09F478CFC6
:104940000E94F80820917C0830917D0840917E08F3
:1049500050917F086419750986099709261737074A
:104960004807590708F064CF80917B080E94BB1F5D
:104970001B8210924508AB81A0934408A017110632
:1049800009F04AC045018C0C9D1C9C828B828B8156
:104990009C818819990980179107B8F5E981FA81F6
:1049A00081819281DC01ED91FC910284F385E02DFF
:1049B0001995EB81FC818193FC83EB83E8CFE5EED5
:1049C000E093BC0093CF80917C0890917D08A091EA
:1049D0007E08B0917F08892B8A2B8B2B09F48ACF14
:1049E0000E94F80820917C0830917D0840917E0853
:1049F00050917F08641975098609970926173707AA
:104A00004807590708F076CFAFCFC00ED11EF2E0AD
:104A1000CF16D10408F4F9CED70112962C91129733
:104A200017968D919C91982789279827022E02C06E
:104A3000969587950A94E2F7222329F08115B8E02C
:104A40009B0708F0906F0F900F900F900F900F90B2
:104A5000DF91CF911F910F91FF90EF90DF90CF905A
:104A6000BF90AF909F908F907F906F905F904F908E
:104A70003F902F9008958F929F92AF92BF92CF92C6
:104A8000DF92EF92FF920F931F93CF93DF9300D0AB
:104A90001F92CDB7DEB77C0180E2689FF001112440
:104AA000E25CF94F93859171A9F0842F827491F0A3
:104AB00080E00F900F900F900F90DF91CF911F919A
:104AC0000F91FF90EF90DF90CF90BF90AF909F90AD
:104AD0008F900895142FD70152966C93529740915E
:104AE00000025091010260910202709103021E9631
:104AF0004D935D936D937C93519784889588B12CE9
:104B0000A12C54019924882457968D929D92AD92A0
:104B1000BC925A97828D938DB0E0A0E0AC01BD01AC
:104B2000482959296A297B29D70157964D935D93C6
:104B30006D937C935A978385887109F08CC0848D1E
:104B4000958DA68DB78DF701838B948BA58BB68B36
:104B500081E08583812F8F70D70114968C931497F1
:104B6000F70116821782108611861A961D921D92E1
:104B70001D921C921D9716FF84C015968C91159757
:104B8000813009F095CF11FF93CF53968D919D9170
:104B90000D90BC91A02D892B8A2B8B2B09F471C011
:104BA00040E050E0BA01C7010E947013882309F465
:104BB0007FCFF701C38CD48C8788908CA18CB28C6A
:104BC00082E090E0A0E0B0E0F60180839183A283D0
:104BD000B3839E012F5F3F4FB501A401C6010E9420
:104BE0003012882309F464CF00E010E09801B50189
:104BF000A401C6010E948E11882309F459CF89802F
:104C00009A80AB80BC80D60157968C918031A1F1FF
:104C100088EF9FEFAFEFBFE088169906AA06BB06A4
:104C2000C0F2F701178A108E118E128E138A148A21
:104C3000158A168A84818068848361E0C7010E9496
:104C40005116882309F434CF40E050E0BA01C7017F
:104C50000E9470132ECF803109F02ACF97012D5E6C
:104C60003F4F5B968D919C910E94B112882309F46D
:104C70001FCF84E0F7016DCF88EF9FEFA0E0B0E099
:104C8000CBCF81E016CFCF93DF93FC012481358118
:104C9000232B79F0C081D181062E000C770BCE0139
:104CA0000E94A75A009729F08C1B9D0BDF91CF9192
:104CB00008958FEF9FEFFACF0F931F93CF93DF935A
:104CC00000D000D0CDB7DEB78091090A90910A0AD2
:104CD000DC01ED91FC91028CF38DE02D1995892B6F
:104CE00061F08091090A90910A0ADC01ED91FC9132
:104CF0000680F781E02D1995E7CFEAE2FAE08CE231
:104D0000DF011D928A95E9F783EE8093260A1092BF
:104D1000270A86E08093280A8CEE8093290A81E393
:104D20008093320A9EE49093330A8093340A84E39A
:104D30008093350A60910C0A70910D0A8091090ADE
:104D400090910A0ADC01ED91FC916115710509F45D
:104D500097C00688F789E02D4BE750E019958091C0
:104D6000090A90910A0ADC01ED91FC910280F3811D
:104D7000E02D40E350E066E27AE019958091090A5F
:104D800090910A0ADC01ED91FC91008CF18DE02DEF
:104D9000199510E06AE070E080E090E00E941D0943
:104DA0008091090A90910A0ADC01ED91FC91028C34
:104DB000F38DE02D1995153609F47BC01F5F892B03
:104DC00049F30E944F09212F30E0A9014F5F5F4F47
:104DD000EAE0E49F9001E59F300D11248901330F33
:104DE000220B330BAB01BC01401B510B620B730B4D
:104DF0004093220A5093230A6093240A7093250A51
:104E00008091090A90910A0ADC01ED91FC91048CD1
:104E1000F58DE02D40E350E066E27AE0199580914F
:104E20004E0A90914F0A982789279827B0E0A0E072
:104E3000DC01992788274091500A5091510A542744
:104E40004527542770E060E0842B952BA62BB72BC9
:104E500080589E47AA4AB34880931E0A90931F0A1F
:104E6000A093200AB093210A81E026960FB6F89409
:104E7000DEBF0FBECDBFDF91CF911F910F9108957F
:104E80000488F589E02D2BEE32E03A8329834091A6
:104E9000100A5091110A6091120A7091130A4B8303
:104EA0005C836D837E834BE750E0BE016F5F7F4F75
:104EB00055CF80E0DACFAF92BF92CF92DF92EF92E0
:104EC000FF920F931F93CF93DF9300D01F92CDB724
:104ED000DEB78C016B017A0180913D068333E9F4E2
:104EE0005B016801C40ED51EC016D106A9F10E944F
:104EF0002F0A8FE00E94790C812F0E94790C802F5D
:104F00000E94790C0F5F1F4F80E00E94790CF50121
:104F100081935F010E94250AE7CF843369F50E94DF
:104F20002F0A19830A838F2D8F778B83EC8264E09D
:104F300070E0CE0101960E940B0AA70170E060E0CC
:104F4000C6010E94A05AE114F10421F0B701C60184
:104F50000E940B0A0E94250AC7010F900F900F9024
:104F60000F90DF91CF911F910F91FF90EF90DF9005
:104F7000CF90BF90AF9008950E942F0A0F3F110568
:104F800009F030F419820A831B8263E070E0D1CF0C
:104F900017FD0BC019820A8333E0169507953A95E1
:104FA000E1F7007E08600B83F0CFC80126E09695FC
:104FB00087952A95E1F7807E19830A830115104CA5
:104FC00018F480618B83E1CF8861FCCF1F93CF936E
:104FD000DF931F92CDB7DEB7182F80E591E00E94D6
:104FE000B90D812F0E943A0A27E0129FF001112487
:104FF000EB50FA4F22813381377041E050E0BE011F
:105000006F5F7F4F820F931F0E945B2789810F90F4
:10501000DF91CF911F910895FC01808D883040F47D
:10502000218D328D232B21F00E94E62790E00895F8
:105030008FEF9FEF0895CF93DF93FC0124852830F5
:1050400028F08FEF9FEFDF91CF910895EC01019051
:10505000F081E02D0084F185E02D1995892B89F3ED
:105060008C850E94E62790E0EECFCF93DF931F92CE
:10507000CDB7DEB741E050E0BE016F5F7F4F0E94C9
:105080005B2789810F90DF91CF91089590E080E0B8
:105090000C943528CF93DF93C4E1D0E00E944628DA
:1050A000882361F061E070E080E090E00E941D09DB
:1050B0002197A1F780E0DF91CF91089581E0FBCFA8
:1050C0001F93CF93DF931F921F92CDB7DEB760E39C
:1050D00072E080E090E00E941D090E94370C8091F0
:1050E0001402282F30E0F901E652F74FE491F0E086
:1050F000EE0FFF1FE054F74F4591549150939704E2
:1051000040939604F901E05EF64FE491E093950434
:1051100061E00E94C7080E94250A80E591E00E9494
:10512000B90D84E380933D0680E80E942E0D0E9415
:105130004A28882391F188E00E942E0D0E9446287B
:10514000883059F580E10E942E0D0E94462880315A
:1051500021F580E00E942E0D0E944628182F811113
:105160001CC08FE190E00E9435288330B1F480E4C8
:105170008093980442E06EE170E0812F0E947E0DE2
:1051800042E06FE170E0812F0E947E0D1F5F1830BA
:1051900089F781E08093460864C087E380933D06E9
:1051A00080E80E942E0D0E944A288823F9F088E0AA
:1051B0000E942E0D0E9446288830C1F480E10E9492
:1051C0002E0D0E944628182F803181F480E00E9425
:1051D0002E0D0E944628811109C089E390E00E94AB
:1051E0003528843019F410939804D3CF83E3809347
:1051F0003D0680E80E942E0D0E944A28882371F106
:1052000080E10E942E0D0E944628803139F582E10E
:105210000E942E0D0E944628823101F580E00E94F6
:105220002E0D0E944628811119C084E080939804B5
:1052300015E51A8341E050E0BE016E5F7F4F8BE1C0
:1052400090E00E94800C198341E050E0BE016F5F46
:105250007F4F8AE190E00E94800C9BCF10923D0628
:1052600080E00F900F90DF91CF911F910895CF9222
:10527000DF92EF92FF920F931F93CF93DF93EC0196
:105280006B018A017901809146088823E9F180E564
:1052900091E00E94B90D46E050E067E478E089E0D3
:1052A00090E00E94800CBE016E5F7F4F44E050E0B2
:1052B0008FE090E00E94800CB8016E5F7F4F44E069
:1052C00050E081E090E00E94800CB7016E5F7F4F5C
:1052D00044E050E085E090E00E94800CF60182817D
:1052E0009381A481B5818093670990936809A09305
:1052F0006909B0936A09DF91CF911F910F91FF90D7
:10530000EF90DF90CF9008950E946028882399F352
:10531000BECF2091980430E0322F2227620F731FF6
:1053200090E0982F8827860F971F0C943528CF93ED
:10533000C82F462F61E070E00E947E0D61E070E0B2
:105340008C2F0E9489298111F9CFCF910895CF9395
:10535000C82F80E591E00E94B90D68E070E08C2FC5
:10536000CF910C949729CF93C82F80E591E00E94AC
:10537000B90D60E170E08C2FCF910C949729CF93F9
:10538000DF93EC01888D883020F40E94B32988E0F7
:10539000888FDF91CF91089563E070E00C948929A4
:1053A000CF93C82F80E591E00E94B90D8C2FCF914B
:1053B0000C94CC29EF92FF920F931F93CF93DF931E
:1053C0007C0180913D06D4E0833309F0D8E00DE202
:1053D00016E0C0E0F801219131918F01F70184813D
:1053E00095812817390729F0CF5FDC13F3CF80E0D0
:1053F00006C08C2F0E94D0298431B1F781E0DF9163
:10540000CF911F910F91FF90EF900895CF93DF936D
:10541000EC018C858830D0F40E94D029843189F049
:10542000882379F0883169F021E08C3159F4E881E2
:10543000F9810084F185E02DCE01199521E0892BB9
:1054400009F420E0822FDF91CF91089580E0FBCF17
:10545000CF92DF92EF92FF92CF93DF93EC018C8596
:10546000883068F40E94A7290E944F096B017C01D3
:105470008C850E94D029811109C088E08C87DF913A
:10548000CF91FF90EF90DF90CF90089561E070E0B2
:1054900080E090E00E941D090E944F09AB01BC0111
:1054A0004C195D096E097F098D859E85B0E0A0E0ED
:1054B000481759076A077B07D8F28C850E94B329E1
:1054C000DCCFCF93FC01C08D80E591E00E94B90D47
:1054D00060E270E08C2F0E94972962E070E08C2FD0
:1054E0000E94892984FD16C062E070E08C2F0E9422
:1054F000892983FF0AC048E162E070E08C2F0E9496
:105500007E0D80E090E0CF91089580E591E00E94CB
:10551000B90DE3CF40E162E070E08C2F0E947E0D78
:1055200081E0F0CF80914608882349F080913D06C4
:10553000843351F08733A9F090E080E008950E9411
:1055400060288823C9F3F2CF80E591E00E94B90D6D
:1055500085E390E00E94352885FD0DC082E090E053
:10556000089580E591E00E94B90D8EE290E00E94DE
:10557000352880FFF3CF81E090E00895DA01E091D3
:105580009804F0E0FE2FEE27E60FF71F90E0982F2B
:105590008827A901BD018E0F9F1F0C945B278F9256
:1055A0009F92AF92BF92CF92DF92EF92FF920F93B2
:1055B0001F93CF93DF93CDB7DEB760970FB6F89404
:1055C000DEBF0FBECDBF7C0190913D06911115C08D
:1055D00018E0812F60960FB6F894DEBF0FBECDBFE6
:1055E000DF91CF911F910F91FF90EF90DF90CF90BF
:1055F000BF90AF909F908F90089508E0933309F487
:1056000004E06B0180E591E00E94B90D9E012F5FDF
:105610003F4F5901490110E0812F0E94CC29F4012C
:1056200081934F018823C1F01F5F0113F5CF00E084
:10563000F50181915F018D3149F0883139F08A514E
:10564000823020F00F5F1013F3CFC2CF60E170E023
:10565000802F0E949729102FA12EB12CF501EE0F5B
:10566000FF1FE35DF94F1182108283EE93E00197F3
:10567000F1F742E870E060E0812F0E947E0D4FEF6D
:1056800062E070E0812F0E947E0DB601C114D1044A
:1056900091F4809115029091160201968115F0EC1B
:1056A0009F0708F45CC090931602809315026091E6
:1056B000150270911602812F0E94680D86E0EDE1BF
:1056C000F2E0DE01199601900D928A95E1F7F7015B
:1056D00083818F778C8784818D8785818E87A701D1
:1056E0004E5F5F4F24E030E06CE070E0812F0E945D
:1056F000410DB601812F0E94520D26E030E0AE012F
:10570000475F5F4F66E070E0812F0E94410D61E0CE
:1057100070E0812F0E94972927E02A9DC0012B9DD0
:10572000900D11249C012B503A4F7901F9011182FF
:10573000108222E030E0AE01415F5F4F68E270E02E
:10574000812F0E94BE2A8F859889982789279827BC
:10575000F701938382831682158214823ACF80E008
:1057600090ECA1CFCF92DF92EF92FF920F931F9315
:10577000CF93DF9300D000D0CDB7DEB78C016B01A3
:105780007A01FC01808D883010F40E94B3298BEEE1
:1057900092E09A838983F60182819381A481B58105
:1057A0008B839C83AD83BE83B701CE0101960E949B
:1057B000CF2AF801808F8830A0F4F586E486128E17
:1057C000118E81E026960FB6F894DEBF0FBECDBFD6
:1057D000DF91CF911F910F91FF90EF90DF90CF90CD
:1057E000089580E0EFCF7F928F929F92AF92BF9209
:1057F000CF92DF92EF92FF920F931F93CF93DF939D
:105800001F921F92CDB7DEB7782E8B014A01590146
:1058100022E030E0AE014F5F5F4F64E270E00E9433
:10582000BE2AE980FA80FE24EF24FE24E00EF11E59
:105830009701377040913D06072D10E0433309F082
:1058400042C0085F1F4F102F0027110F110F110FBB
:10585000C901800F911F4733C9F1A9014A0D5B1D92
:105860004130584098F160E078E06B01C21AD30AE9
:10587000A601B4010E94800CA5014C195D09B40178
:105880006C0D7D1DC8010E94800CEA0CFB1CF98286
:10589000EA8222E030E0AE014F5F5F4F64E270E0E9
:1058A000872D0E94410D0F900F90DF91CF911F9196
:1058B0000F91FF90EF90DF90CF90BF90AF909F90AF
:1058C0008F907F900895005F1F4FBDCFA501B40159
:1058D000DACFEF92FF921F93CF93DF931F921F9225
:1058E000CDB7DEB7182F22E030E0AE014F5F5F4F3B
:1058F00060E270E00E94BE2AE980FA80FE24EF2474
:10590000FE2422E030E0AE014F5F5F4F60E270E0C6
:10591000812F0E94BE2A89819A81982789279827FA
:10592000E816F90689F487E0189FF0011124EB507E
:10593000FA4FF582E482C7010F900F90DF91CF916B
:105940001F91FF90EF9008957C01DBCF1F93CF93C1
:10595000DF93182F80E591E00E94B90D812F0E94FE
:10596000692CEC01812F0E94CC29873121F08C31E8
:1059700011F0D0E0C0E0CE01DF91CF911F910895EA
:10598000CF93DF93EC018C85883060F40E94D0299E
:10599000873111F08C3131F48C850E94A62C811551
:1059A000984088F3DF91CF910895FC018485883079
:1059B00010F40C94A62C90E080E00895CF92DF9232
:1059C000EF92FF921F93CF93DF93182F7B01EA0191
:1059D0004130584010F0C0E0D8E080E591E00E94EE
:1059E000B90D812F0E94692C6C01812F0E94CC2956
:1059F000873111F08C3121F5CC16DD0670F380E58E
:105A000091E00E94B90D9E01A70170E060E0812F36
:105A10000E94F32B60E270E0812F0E94972962E0E0
:105A200070E0812F0E94892984FD0DC0812F0E9482
:105A3000CC298823B9F080E591E00E94B90DEFCF21
:105A4000D0E0C0E0DCCF40E162E070E0812F0E9456
:105A50007E0DCE01DF91CF911F91FF90EF90DF90EF
:105A6000CF900895D0E0C0E0F4CF0F931F93CF9371
:105A7000DF938C01EA01FC018485883048F40E94A0
:105A8000DE2C892B39F481E090E0F8019383828346
:105A9000D0E0C0E0CE01DF91CF911F910F9108952A
:105AA0009F92AF92BF92CF92DF92EF92FF920F93AD
:105AB0001F93CF93DF938C015B01942EE52EFC01A5
:105AC000C688D788F08C80E591E00E94B90D8F2DB3
:105AD0000E94692CC92DDE2D8C179D0708F4EC015E
