:100000000C94C8050C94D7440C94AC440C948144D3
:100010000C9456440C942B440C9400440C94D543FB
:100020000C94AA430C94F9050C94F9050C94F90569
:100030000C94F9050C94F9050C94F9050C94F90548
:100040000C94F9050C94F9050C94F9050C94F90538
:100050000C94F9050C94F9050C94F9050C94604383
:100060000C94F9050C942A430C9400430C94F90564
:100070000C94F9050C94F9050C94F9050C94F90508
:100080000C94F9050C94F9050C94F9050C94F905F8
:100090000C94CA420C94A0420C94F9050C940245AD
:1000A0000C94F9050C94F9050C94F9050C94F905D8
:1000B0000C94F9050C94F9050C94F9050C94F905C8
:1000C0000C94F9050C94F9050C94F9050C94F905B8
:1000D0000C94F9050C94F9050C94F9050C94F905A8
:1000E0000C94F9050C94F2300C9457460C94051FAF
:1000F0000C9417300C94DE540C945A060C943D1753
:100100000C9468160C9447280C9423230C9429080B
:100110000C9456280C94D2080C94F21E0C94ED2FDB
:100120000C94632A0C94C5080C94102D0C949A0717
:100130000C94CE2F0C9400240C94E00A0C9495217E
:100140000C94EA080C94641E0C94E61E0C94E118BE
:100150000C94853B0C94990A0C94F2080C94E008DA
:100160000C945C0C0C9485230C942D070C94F023B8
:100170000C94EC230C9431300C94F8080C94780710
:100180000C94D2160C94591C0C940F190C94D40A8C
:100190000C94AF0A0C945E160C94DC080C949D1E13
:1001A0000C94FC080C94D61E0C94702D0C949C2A74
:1001B0000C9410310C941F1E0C94E7310C94E33214
:1001C0000C94E8230C94830A0C9429070C941F1AAE
:1001D0000C9440310C94BC310C945B060C945F067B
:1001E0000C9462330C94DE0A0C94A6080C947223CF
:1001F0000C94CC080C94C4090C94413E0C94B92383
:100200000C94ED2B0C94DC070C94021E0C94FE1E37
:100210000C942B1D0C94E4080C94AB080C948C07E4
:100220000C94C1080C9463230C94BD080C945906DB
:100230000C94B43E0C943F3F0C94D00A0C94FA29D1
:100240000C94ED320C949F2E0C941D070C944D0EC3
:100250000C94FB2C0C94BA0A0C94D6080C94250729
:100260000C94C9080C94F62E0C942C0C0C94F218D7
:100270000C948A1D0C94B4320C9407240C94412ADB
:100280000C94EE080C948B2D0C948C230C944C0C39
:100290000C943C070C94152A0C94690700407A10C2
:1002A000F35A00A0724E18090010A5D4E80000E827
:1002B0007648170000E40B54020000CA9A3B000085
:1002C00000E1F505000080969800000040420F0014
:1002D0000000A08601000000102700000000E803D5
:1002E000000000006400000000000A0000000000A0
:1002F0000100000000002C76D888DC674F0823DF5F
:10030000C1DFAE59E1B1B796E5E3E453C63AE65131
:10031000997696E8E6C28426EB898C9B62ED407C58
:100320006FFCEFBC9C9F40F2BAA56FA5F490055AF4
:100330002AF75C936B6CF9676DC11BFCE0E40D4719
:10034000FEF520E6B500D0ED902E0300943577053C
:100350000080841E080000204E0A000000C80C33F4
:100360003333330F986E12831141EF8D2114893B83
:10037000E65516CFFEE6DB18D1844B381BF77C1D03
:10038000901DA4BBE424203284725E228100C9F156
:1003900024ECA1E53D2700000000003E5B4F5B3EE2
:1003A0003E6B4F6B3E1C3E7C3E1C183C7E3C181C3A
:1003B000577D571C1C5E7F5E1C00183C1800FFE731
:1003C000C3E7FF0018241800FFE7DBE7FF30483AD7
:1003D000060E2629792926407F050507407F052539
:1003E0003F5A3CE73C5A7F3E1C1C08081C1C3E7FC1
:1003F00014227F22145F5F005F5F06097F017F0088
:100400006689956A606060606094A2FFA2940804A7
:100410007E040810207E201008082A1C08081C2AC8
:1004200008081E101010100C1E0C1E0C30383E3820
:1004300030060E3E0E06000000000000005F0000C7
:100440000007000700147F147F14242A7F2A122338
:100450001308646236495620500008070300001C48
:100460002241000041221C002A1C7F1C2A08083E51
:100470000808008070300008080808080000606064
:100480000020100804023E5149453E00427F4000D2
:1004900072494949462141494D331814127F1027AA
:1004A000454545393C4A49493141211109073649F9
:1004B000494936464949291E0000140000004034CD
:1004C00000000008142241141414141400412214D2
:1004D0000802015909063E415D594E7C1211127CF9
:1004E0007F494949363E414141227F4141413E7F5A
:1004F000494949417F090909013E414151737F083A
:1005000008087F00417F41002040413F017F0814DF
:1005100022417F404040407F021C027F7F04081040
:100520007F3E4141413E7F090909063E4151215E1E
:100530007F09192946264949493203017F01033FB2
:100540004040403F1F2040201F3F4038403F631441
:1005500008146303047804036159494D43007F4143
:1005600041410204081020004141417F0402010280
:1005700004404040404000030708002054547840A5
:100580007F284444383844444428384444287F3839
:100590005454541800087E090218A4A49C787F08BB
:1005A00004047800447D40002040403D007F102836
:1005B000440000417F40007C047804787C080404F7
:1005C000783844444438FC1824241818242418FC8F
:1005D0007C08040408485454542404043F44243C34
:1005E0004040207C1C2040201C3C4030403C4428A3
:1005F0001028444C9090907C4464544C440008363D
:1006000041000000770000004136080002010204AA
:10061000023C2623263C1EA1A161123A4040207ACA
:100620003854545559215555794122545478422112
:100630005554784020545579400C1E527212395549
:100640005555593954545459395554545800004546
:100650007C410002457D420001457C407D12111223
:100660007DF0282528F07C545545002054547C54B6
:100670007C0A097F4932494949323A4444443A3272
:100680004A4848303A4141217A3A42402078009D18
:10069000A0A07D3D4242423D3D4040403D3C24FFC4
:1006A0002424487E4943662B2FFC2F2BFF0929F673
:1006B00020C0887E090320545479410000447D41C4
:1006C0003048484A32384040227A007A0A0A727D1D
:1006D0000D19317D2629292F282629292926304838
:1006E0004D4020380808080808080808382F10C8A6
:1006F000ACBA2F102834FA00007B000008142A142A
:100700002222142A14085500550055AA55AA55AAA4
:10071000FF55FF55FF000000FF00101010FF0014F0
:100720001414FF001010FF00FF1010F010F014144C
:1007300014FC001414F700FF0000FF00FF1414F471
:1007400004FC141417101F10101F101F1414141F72
:1007500000101010F0000000001F101010101F10EB
:10076000101010F010000000FF10101010101010EA
:100770001010FF10000000FF140000FF00FF000039
:100780001F10170000FC04F414141710171414F4AD
:1007900004F40000FF00F714141414141414F700E8
:1007A000F7141414171410101F101F141414F41439
:1007B0001010F010F000001F101F0000001F1400A8
:1007C0000000FC140000F010F01010FF10FF1414D3
:1007D00014FF141010101F00000000F010FFFFFFA6
:1007E000FFFFF0F0F0F0F0FFFFFF0000000000FF5F
:1007F000FF0F0F0F0F0F3844443844FC4A4A4A3465
:100800007E02020606027E027E026355494163387B
:1008100044443C04407E201E2006027E020299A52C
:10082000E7A5991C2A492A1C4C7201724C304A4D8A
:100830004D303048784830BC625A463D3E494949BF
:10084000007E0101017E2A2A2A2A2A44445F444468
:1008500040514A444040444A51400000FF0103E0F7
:1008600080FF000008086B6B083612362436060F2E
:10087000090F06000018180000001010003040FF9B
:100880000101001F01011E00191D1712003C3C3C14
:100890003C00000000007C3C3E5E2B3D3F2F5B5D3A
:1008A0003B2C2A225C0000002100240027002A00A3
:1008B0002D003000330001010000040107010A018E
:1008C00000002200250028002B002E0031003400FB
:1008D00002010000050108010B01050505050705DA
:1008E00008080808020202020A0A080804040404AC
:1008F00001010101010101010303030303030303D8
:10090000040707070C0C0C0C0C0C0C0C0202020266
:1009100006060606060606060B0B0B0B0B0B0B0B4F
:100920000102102020080810204010204080020101
:1009300002010804020101020408102040808040E6
:1009400020100804020180040201804020100804E5
:100950000201080402010102040810204080010283
:1009600004081020408000000A0B02090C0D0E083C
:100970000703040100000000000000000000000068
:100980000000000000000000000000000000000067
:100990000000121110000000000000000000000024
:1009A00000000000000000000000000000006000E7
:1009B00000000000000000000000000000E0000057
:1009C000000000000000000000000001E000000046
:1009D0000000000000000000000001F00000000026
:1009E00000000000000000000003F0000000000014
:1009F000000000000000000007F000000000000000
:100A00000000000000000007F800000000000000E7
:100A10000000000000000FF800000003C0007E008E
:100A20000001E0007F0FF800000003C000FE00009E
:100A300001E000FFEFF800000003C000FE0000012D
:100A4000E000FFFFF800000003C000F00000000F0E
:100A5000007FFE7FC0000003C000F00000000F0018
:100A60003FFE7FF83FF1FBCFFCFEF3BC3DEFE01F04
:100A7000FE7FFF7FFBFFDFFEFEFFBC3DEFE01FC6FA
:100A8000FFFF7FFBFFDFFEFEFFBC3DEFE00FE3C794
:100A9000FE787BC3DE1EF0FFBC3DEF0007FF87FC46
:100AA000787BC3DE1EF0F83C3DEF0001FFFFF00055
:100AB0007BC3C01EF0F03C3DEF0001F37FE03FFB45
:100AC000C3CFFEF0F03C3DEF0003E33F807FFBC36C
:100AD000DFFEF0F03C3DEF0007E73C00787BC3DE33
:100AE0001EF0F03C3DEF0007FFBE00787BC3DE1E2A
:100AF000F0F03C3DEF0007FFFE00787BC3DE1EF008
:100B0000F03C3DEF000FFFFE007FFBFFDFFEF0F04B
:100B10003FFDEFE00FFFFF007FFBFFDFFEF0F03F48
:100B2000FDEFE00FF9FF003E79F9CF9EF0F01F3D99
:100B3000E7E01FF1FF0000000000000000000000DF
:100B4000001F80FF007FFFFFFFFFFFFFFFFFFFE0B1
:100B50001C007F007FFFFFFFFEB46D888D18E00052
:100B6000001F007FFFFFFFFE95AD7DB577E0000021
:100B70000F007FFFFFFFFEA5AD9D8D19E000000671
:100B8000007FFFFFFFFEB5ADEDB57EE05746DE54BA
:100B900011241FBECFEFD1E2DEBFCDBF00E00CBFFE
:100BA00016E0A0E0B2E0E4E0FDEB00E00BBF02C025
:100BB00007900D92AE36B107D9F72DE0AEE6B6E05C
:100BC00001C01D92A539B207E1F715E0C7ECD5E0E9
:100BD00000E006C021970109802FFE010E94DA5B28
:100BE000C63CD10780E00807A9F70E940E480C9484
:100BF000705E0C940000FC01A089B18982E08C93A6
:100C0000A485B5851C92A685B7858FEC8C93108E34
:100C1000A489B58986E08C93A289B3898C9180617F
:100C20008C93A289B3898C9188608C93A289B389B3
:100C30008C9180688C930288F389E02D80818F7D70
:100C400080830895CF93DF93FC01828193819093F9
:100C5000A20C8093A10C84819581A681B781809399
:100C6000A30C9093A40CA093A50CB093A60C808524
:100C70009185A285B3858093A70C9093A80CA0932F
:100C8000A90CB093AA0CDF011C96CF014996CBEAC0
:100C9000DCE02D912993A817B907D9F7818D928DA2
:100CA0009093B90C8093B80C8FE99CE0DF91CF91C1
:100CB000089508950895FC01818D928D08950895F9
:100CC0008230910538F0880F991F880F991F05977A
:100CD0000197F1F708959F92AF92BF92CF92DF9262
:100CE000EF92FF920F931F93CF93DF93EC016B0171
:100CF0008885998511E0892B09F010E8F601A0801C
:100D00008A2D8123992493948111912C2C813D81EA
:100D10004E815F8160E271EA87E090E00E944B5A69
:100D2000022FB12CE22EF12C002319F0C7010E94F2
:100D300060068A85877F09F04FC08D858F3F89F0D7
:100D40009A2D912381E009F480E0891551F0EF8517
:100D5000F8898F899923D1F19081892B80839924F7
:100D60009394E989FA898081998D892B8083002366
:100D700019F0C7010E9460068E858F3F39F0EB891C
:100D8000FC898081988D892309F0B12AE989FA8943
:100D90009081898D8095892380838E858F3F11F086
:100DA000F601B08288859985892B09F044C0110F1E
:100DB0001111BACFDF91CF911F910F91FF90EF905A
:100DC000DF90CF90BF90AF909F90089590818095D5
:100DD00089238083912CC5CFE989FA898081998DF7
:100DE000892B8083002319F0C7010E9460068D853E
:100DF0008F3F49F0EF85F8898F899A2D9123B9F0BB
:100E00009081892B8083E989FA899081898D8095E9
:100E1000892380838E858F3F09F4BFCFEB89FC89BE
:100E20008081988D892309F4B8CFB12AB6CF9081FB
:100E300080958923E7CF1695BBCF21E0FC018485FF
:100E4000883008F020E0822F089581E08093EB063F
:100E5000089581E08093EA0608950895DB011496D1
:100E60004D915C9115976D917C91DC01ED91FC9118
:100E70000280F381E02D1994AF92BF92CF92DF925E
:100E8000EF92FF920F931F93CF93DF936C017B013F
:100E90008B01040F151FEB015E01AE18BF08C017D0
:100EA000D10759F06991D601ED91FC910190F08143
:100EB000E02DC6011995892B79F7C501DF91CF91F6
:100EC0001F910F91FF90EF90DF90CF90BF90AF9068
:100ED0000895FC01538D448D252F30E0842F90E040
:100EE000821B930B541710F0CF9608950197089525
:100EF000FC01918D828D981761F0A28DAE0FBF2FEE
:100F0000B11D5D968C91928D9F5F9F73928F90E043
:100F100008958FEF9FEF0895FC01918D828D9817B2
:100F200031F0828DE80FF11D858D90E008958FEFEF
:100F30009FEF0895FC01918D228D892F90E0805CB8
:100F40009F4F821B91098F73992708958CEC9AE02B
:100F50000E949A0721E0892B09F420E0822F08954E
:100F600089E69BE00E949A0721E0892B09F420E0A2
:100F7000822F0895FC01A48DA80FB92FB11DA35A8B
:100F8000BF4F2C91848D90E001968F739927848FA9
:100F9000A689B7892C93A089B1898C9183708064CC
:100FA0008C93938D848D981306C00288F389E02D6D
:100FB00080818F7D80830895EF92FF920F931F931E
:100FC000CF93DF93EC0181E0888F9B8D8C8D9813FC
:100FD0001AC0E889F989808185FF15C09FB7F89408
:100FE000EE89FF896083E889F98980818370806454
:100FF00080839FBF81E090E0DF91CF911F910F919F
:10100000FF90EF900895F62E0B8D10E00F5F1F4FAD
:101010000F731127E02E8C8D8E110CC00FB607FCBC
:10102000FACFE889F989808185FFF5CFCE010E944A
:10103000BA07F1CFEB8DEC0FFD2FF11DE35AFF4FF7
:10104000F0829FB7F8940B8FEA89FB8980818062D8
:10105000CFCFCF93DF93EC01888D8823B9F0AA8995
:10106000BB89E889F9898C9185FD03C0808186FD63
:101070000DC00FB607FCF7CF8C9185FFF2CF8081B2
:1010800085FFEDCFCE010E94BA07E9CFDF91CF9166
:10109000089580E090E0892B29F00E94B00781112B
:1010A0000E94000080E090E0892B29F00E94A607B2
:1010B00081110E94000080E090E0892B49F080E0DF
:1010C00090E0892B29F00E94000081110E9400000D
:1010D00080E090E0892B49F080E090E0892B29F0B6
:1010E0000E94000081110C9400000895282F30E028
:1010F000F901EA59F64F9491F901E05EF64F4491F7
:101100002652374FF9012491222309F435C099233F
:1011100011F191509231F8F4E92FF0E08827EC5664
:10112000F74F8F4F0C94DA5BC508C908A608BD08B5
:10113000C108AB08CC08D208D608DC08E008E408EF
:10114000EA08EE08AB08F208F808FC088091800075
:101150008F7780938000E22FF0E0EE0FFF1FE054C6
:10116000F74FA591B4918FB7F894EC91611148C0F5
:1011700040954E234C938FBF0895809180008F7DC2
:10118000E8CF80918000877FE4CF84B58F7784BDDE
:10119000E2CF84B58F7DFBCF8091B0008F778093B5
:1011A000B000D9CF8091B0008F7DF9CF80919000B1
:1011B0008F7780939000CFCF809190008F7DF9CF73
:1011C00080919000877FF5CF8091A0008F778093EA
:1011D000A000C1CF8091A0008F7DF9CF8091A000A9
:1011E000877FF5CF809120018F7780932001B3CF47
:1011F000809120018F7DF9CF80912001877FF5CFED
:101200004E2BB8CFCF93DF9390E0FC01E05EF64F1A
:1012100024918652974FFC0184918823D1F090E06D
:10122000880F991FFC01EA55F74FA591B491FC0175
:10123000E054F74FC591D49161110EC09FB7F89457
:101240008C91E22FE0958E238C932881E223E88312
:101250009FBFDF91CF9108958FB7F894EC91E22B67
:10126000EC938FBFF6CF3FB7F8948091E60690914C
:10127000E706A091E806B091E90626B5A89B05C04F
:101280002F3F19F00196A11DB11D3FBFBA2FA92F05
:10129000982F8827BC01CD01620F711D811D911D02
:1012A00042E0660F771F881F991F4A95D1F708956E
:1012B0008F929F92AF92BF92CF92DF92EF92FF9266
:1012C0004B015C010E9433096B017C010E943309D0
:1012D0006C197D098E099F09683E7340810591054F
:1012E000A8F321E0821A9108A108B10888EEC80E7F
:1012F00083E0D81EE11CF11C81149104A104B10407
:1013000029F7FF90EF90DF90CF90BF90AF909F9024
:101310008F9008952FB7F8946091E2067091E306DC
:101320008091E4069091E5062FBF08950F931F93D7
:10133000CF93DF93EC010E948A09688779878A87B7
:101340009B87E881F9810284F385E02DCE01199510
:1013500097FF15C00E948A09088519852A853B8553
:10136000601B710B820B930B0C811D812E813F81C1
:10137000601771078207930720F38FEF9FEFDF91CC
:10138000CF911F910F9108950895CF92DF92EF9220
:10139000FF92CF93DF93EB01FC01238134816FE651
:1013A000C62E62E1D62E63E0E62E60E4F62E21150D
:1013B000F4E03F0779F198F42115310509F45DC097
:1013C0007FE6C72E72E1D72E73E8E72E70E4F72E82
:1013D00021153240F9F0C12CD12C76011BC04FE60B
:1013E000C42E42E1D42E43E0E42E4FE3F42E211527
:1013F000F8E03F0779F021154AE03407A9F12115FB
:10140000364049F75FE6C52E52E1D52E53E8E52E6A
:101410005FE3F52EFC01228160E070E880E090E05F
:1014200004C095958795779567952A95D2F70E9480
:101430001E599B01AC01C701B6010E94F45A6B0111
:101440007C01BE01DD0F880B990B0E941E599B0188
:10145000AC01C701B6010E947D59DF91CF91FF9089
:10146000EF90DF90CF9008953FE6C32E32E1D32E68
:1014700033E8E32E3EE3F32ECDCF26EAC22E2BE94E
:10148000D22E24ECE22E20E4F22EC4CFFC012081E7
:101490002EBD9B012150310941F051810DB407FE51
:1014A000FDCF4EB55EBD4193F5CF61507109860FFA
:1014B000971F0DB407FEFDCF2EB5FC0120830895C4
:1014C000E091BE06F091BF0680819091BD06892B08
:1014D00080830895E091BE06F091BF0690818091CF
:1014E000BD06809589238083089590E0209134087B
:1014F000233339F40C96982F990F990F990F80E0A8
:1015000008954896F8CFCF93DF931F92CDB7DEB7FB
:101510006983DC01ED91FC910280F381E02D41E0D3
:1015200050E0BE016F5F7F4F19950F90DF91CF9113
:101530000895CF93DF931F92CDB7DEB76983DC01A7
:10154000ED91FC910280F381E02D41E050E0BE017D
:101550006F5F7F4F19950F90DF91CF910895FC0138
:101560009485FB018485981303C081E0983008F0CE
:1015700080E00895CF93DF931F92CDB7DEB76983E4
:10158000DC01ED91FC910280F381E02D41E050E01F
:10159000BE016F5F7F4F19950F90DF91CF91089536
:1015A000FC01768765870895DC01ED91FC91068C3E
:1015B000F78DE02D199591E089270895862F0895DC
:1015C00081E0862708954F925F926F927F928F926B
:1015D0009F92AF92BF92CF92DF92EF92FF920F93C2
:1015E0001F93CF93DF934B015C018091B9069091DB
:1015F000BA06A091BB06B091BC0688159905AA054C
:10160000BB0509F4C6C08CE3C82ED12CE12CF12C0B
:10161000C501A70196010E944B5A6093750ACA0141
:10162000B901A70196010E944B5A6093760AC50141
:10163000B40120E13EE040E050E00E944B5ACA0174
:10164000B90128E130E040E050E00E944B5A60933D
:10165000770AC501B40120E831E541E050E00E947D
:101660004B5A69017A01CA01B9016C5F7F4F8F4FF4
:101670009F4F27E030E040E050E00E944B5A6F5F00
:101680006093780A412C512C320140E004E610E0CE
:10169000C0E9D1E0242F30E02E54384FF901E37037
:1016A000FF273097F9F4C901B8010E94C65B892B66
:1016B00031F4C901BE010E94C65B892B99F48EE604
:1016C00091E0A0E0B0E0480E591E6A1E7B1ED301D7
:1016D000C201AA27BB27C816D906EA06FB0638F0BE
:1016E0004F5FD8CF8DE691E0A0E0B0E0ECCF409323
:1016F0007B0AC90164E670E00E94C65BEC01C90187
:1017000060E971E00E94C65B309721F42097D9F41C
:101710000097C9F04DE651E060E070E0441A550AC8
:10172000660A770AC418D508E608F708A3E2B2E00B
:1017300020E0213069F43097E9F5209711F4009703
:10174000C9F54DE106C04EE651E060E070E0E6CF3D
:101750004C9150E070E060E031E0320FC416D506E5
:10176000E606F70640F0C41AD50AE60AF70A11960B
:10177000232F3C30F1F62F5F20937A0AC394C09256
:10178000790A8092B9069092BA06A092BB06B092EE
:10179000BC06DF91CF911F910F91FF90EF90DF90EA
:1017A000CF90BF90AF909F908F907F906F905F9001
:1017B0004F9008954CE1CDCFFC01DB0112968D9145
:1017C0009C9113979383828381E992E09183808334
:1017D00014968C911497848315968C911597858314
:1017E00016964D915D916D917C9119974683578323
:1017F000608771871A964D915D916D917C911D97CF
:1018000042875387648775871E964D915D916D91D0
:101810007C91519746875787608B718B52968C913C
:101820005297828B53964D915D916D917C91569715
:10183000438B548B658B768B57964D915D916D9153
:101840007C915A97478B508F618F728F5B968D91E9
:101850009C91948F838F0895DC015996ED91FC91B2
:101860003097B9F083899489A589B68942855385D3
:1018700064857585841B950BA60BB70B811520E835
:101880009207A105B10538F08FEF9FE7A0E0B0E027
:10189000089590E080E00895DC0159968D919C9127
:1018A000009739F0DC01ED91FC910480F581E02D89
:1018B000199490E080E00895CF93DF931F92CDB705
:1018C000DEB76983DC01ED91FC910280F381E02DAC
:1018D00041E050E0BE016F5F7F4F19950F90DF919F
:1018E000CF910895CF93CFB7F8948091B20681112C
:1018F00027C0EFE0F9E08491E5E5F9E09491E82F65
:10190000F0E0EE0FFF1FEA55F74FA591B491EC916F
:10191000E92321F461E085E30E94760861E085E334
:101920000E9402098CB580618CBD8CB580648CBD31
:1019300061E084E30E94020961E083E30E940209FE
:101940008091B2068F5F8093B206CFBFCF9108958A
:10195000089561E0FC0184810E9476088091B306BD
:1019600081111092B30608958EBD00000DB407FEDC
:10197000FDCF8EB50895AF92BF92CF92DF92EF92D6
:10198000FF920F931F93CF93DF9300D000D01F924D
:101990001F92CDB7DEB78C017B016A0180913408BC
:1019A0008333E1F45801A40EB51EA016B10609F464
:1019B0006FC00E946A0A80EF0E94B40C812F0E94BF
:1019C000B40C802F0E94B40C0F5F1F4FF701819160
:1019D0007F010E94B40C0E94600AE7CF5B01A40E55
:1019E000B51E8433C1F40E946A0A19830A838D2DBF
:1019F00080688B83CC8264E070E0CE0101960E9407
:101A0000460AAE14BF0409F441C0F70181917F0179
:101A10000E94B40CF6CF0E946A0A0F3F110509F02C
:101A200028F419820A8384E08B830CC017FD17C049
:101A300019820A8333E0169507953A95E1F7007EFF
:101A40000C600B8386E0C816D104A0F5F701DE0117
:101A50001496EA15FB0599F081918D93FACFC80190
:101A600026E0969587952A95E1F7807E19830A836B
:101A70000115104C10F48461D7CF8C61D5CFB6011D
:101A80006D5F7F4FCE0101960E94460A0E94600A58
:101A9000C60128960FB6F894DEBF0FBECDBFDF910A
:101AA000CF911F910F91FF90EF90DF90CF90BF905B
:101AB000AF90089563E070E0CE0101960E94460A5F
:101AC000F70181917F010E94B40CAE14BF04C1F7ED
:101AD000DDCFCF93DF931F92CDB7DEB7898341E08F
:101AE00050E0BE016F5F7F4F90E080E00E94BB0C32
:101AF0000F90DF91CF910895DA01E091C006F0E0F8
:101B0000FE2FEE27E60FF71F90E0982F8827A901F8
:101B1000BD018E0F9F1F0C94BB0CCF93DF931F92C0
:101B20001F92CDB7DEB779836A8322E030E0AE0141
:101B30004F5F5F4F60E170E00E947C0D0F900F904F
:101B4000DF91CF910895CF93DF931F921F92CDB76E
:101B5000DEB779836A8322E030E0AE014F5F5F4FEA
:101B600064E070E00E947C0D0F900F90DF91CF91A8
:101B70000895CF93DF931F92CDB7DEB72091C006B3
:101B800030E0322F2227260F371F90E0982F88272A
:101B9000498341E050E0BE016F5F7F4F820F931F8A
:101BA0000E94BB0C0F90DF91CF9108958FEF0C94A2
:101BB000B40C0F931F93CF93DF93EC010E948A091B
:101BC0008B010E94D60D8F3F69F00E948A09601B2D
:101BD000710B6C177D07A8F380E0DF91CF911F9107
:101BE0000F91089581E0F9CF8CBD9DBD0895AF920E
:101BF000BF92CF92DF92EF92FF920F931F93CF93FA
:101C0000DF931F92CDB7DEB78C015B016A01DC0167
:101C10008D919C911197892B39F01296ED91FC9141
:101C2000808191810E94F40DF80183858F3F19F026
:101C300060E00E9476087501CA0CDB1CEC14FD0400
:101C4000B9F0D7018D917D018983F801808191815F
:101C5000892B39F061E070E0CE0101960E94460ABE
:101C6000EDCFBE016F5F7F4FC8010E946B06E6CFCC
:101C7000D8011B968C918F3F19F061E00E94760885
:101C800081E00F90DF91CF911F910F91FF90EF9026
:101C9000DF90CF90BF90AF900895FF920F931F9366
:101CA000CF93DF93EB01FC01178A168A2A81211159
:101CB00009C02B81211106C02C81211103C02D8167
:101CC000222301F141155105E9F08A01FC01F08C54
:101CD00080E591E00E94F40DAE014E5F5F4F24E07D
:101CE00030E06CE070E08F2D0E947C0DB8018F2DEC
:101CF0000E948D0D81E090E0DF91CF911F910F91B7
:101D0000FF90089580E0F7CFCF93DF93EC018091AF
:101D1000B306811109C081E08093B3068091420C23
:101D20009091430C0E94F40D60E08C81DF91CF9183
:101D30000C9476088F929F92AF92BF92FF920F936E
:101D40001F93CF93DF93EC01F62E49015A018E8148
:101D5000882389F08F8198859C012F5F3F4F3887BA
:101D60002F838230924018F40E94D60DF3CFCE011B
:101D70000E94A90C1E82CE010E94840E8CE291E08A
:101D80000E94D90D8F2D80640E94B40C08E110E0F0
:101D9000D501C401002E04C0B695A79597958795E7
:101DA0000A94D2F70E94B40C08501109083F8FEF33
:101DB000180771F785E9FF2021F028E087E8F21283
:101DC0008FEF0E94B40C10E00E94D60D8A8787FF27
:101DD00004C01F3F11F01F5FF7CFDF91CF911F911C
:101DE0000F91FF90BF90AF909F908F900895AF920A
:101DF000BF92CF92DF92EF92FF920F931F93CF93F8
:101E0000DF93EC016901C801820F931F813092407A
:101E100050F58E81882379F088819981AA81BB81D0
:101E200084179507A607B70731F48F819885C816E0
:101E3000D90608F042C0488359836A837B838B8527
:101E4000833039F089E0440F551F661F771F8A954C
:101E5000D1F79A01AB0161E1CE010E949A0E88236D
:101E600089F083E08D83CE010E94A90C80E0DF9190
:101E7000CF911F910F91FF90EF90DF90CF90BF9087
:101E8000AF9008950E948A095B010E94D60D8A874F
:101E90008F3F69F40E948A096A197B096D3271408B
:101EA000A0F38FE08D83CE010E94A90CDCCF8E3F82
:101EB00089F418861F8281E08E838F8198858C1526
:101EC0009D0550F40E94D60D8F81988501969887C4
:101ED0008F83F3CF8DE0E6CF6701E00EF11E0E9405
:101EE000D60DF60181936F01EE15FF05C1F78F81C5
:101EF0009885080F191F18870F838985882319F083
:101F000001151240A0F08E81882389F08F81988579
:101F10009C012F5F3F4F38872F838230924018F407
:101F20000E94D60DF3CFCE010E94A90C1E8281E043
:101F30009ECFCF92DF92EF92FF920F93CF93DF93DA
:101F4000EC01690182E1411551056105710599F0C6
:101F50008B85833039F089E0440F551F661F771F4A
:101F60008A95D1F79A01AB0168E1CE010E949A0EE1
:101F7000882319F084E08D832DC08EEF0E94B40C6D
:101F800076018EEFD81AF70181917F010E94B40C7F
:101F9000EC14FD04C1F78FEF0E94B40C8FEF0E9488
:101FA000B40C0E94D60D8A878F71853071F40111AF
:101FB00016C0CE010E94A90C81E0DF91CF910F9154
:101FC000FF90EF90DF90CF90089581E18D83CE0157
:101FD0000E94A90CCE010E94A90C80E0EECF88E5FA
:101FE00092E00E94D90D811102C085E1C4CF20E0AA
:101FF00030E0A9016DE0CE010E949A0E882311F015
:1020000084E1B9CF0E94D60D8111FACFD2CF0F93C0
:102010004091B5065091B6066091B7067091B8062A
:10202000411551056105710599F0082F26E638E044
:102030008091660A9091670A0E94990F882349F05F
:102040001092B5061092B6061092B7061092B80616
:1020500081E00F9108950F93CF93C82F8091B4061C
:10206000811105C0C1E08C2FCF910F91089540914F
:1020700000025091010260910202709103020C2F44
:1020800026E638E08091660A9091670A0E94990FCF
:10209000811102C0C0E0E7CFCC2321F381E00E9490
:1020A00007108823B9F31092B406DDCF8F929F9268
:1020B000AF92BF92EF92FF920F931F93CF934B017A
:1020C0005C01C42F8091000290910102A091020254
:1020D000B091030288159905AA05BB0551F181E06D
:1020E0000E942B1081110BC080E0CF911F910F91A6
:1020F000FF90EF90BF90AF909F908F90089586E6ED
:10210000E82E88E0F82E00E012E030E020E0B50193
:10211000A4018091660A9091670A0E94F70E8823B5
:1021200019F38092000290920102A0920202B092F2
:1021300003024091B4064C2B4093B40681E0D5CF06
:102140008F929F92AF92BF92CF92DF92EF92FF92C7
:10215000CF9324E43CE03093670A2093660A8823F7
:1021600009F46DC040E060E070E0CB010E945610C1
:1021700081110BC080E0CF91FF90EF90DF90CF9066
:10218000BF90AF909F908F9008958091240A8F7791
:1021900089F78091300A9091310AA091320AB0916A
:1021A000330A84369105A105B10520F3C0902C0AAD
:1021B000D0902D0AE0902E0AF0902F0AC114D1047D
:1021C000E104F104B9F240E0C701B6010E945610E3
:1021D000882381F280917108909172088115924054
:1021E00049F6A0917608AA2329F2609174087091AB
:1021F00075086115710509F4BDCF2091730822237C
:1022000009F4B8CFA093620C2093540C90E080E0C6
:1022100030E0E1E0F0E0C82FAF01082E02C0440F2B
:10222000551F0A94E2F72417350769F041E0480F7B
:1022300001968930910579F740935D0C9BCFC12CB5
:10224000D12C7601C0CF80935D0C20917C08309119
:102250007D0850E040E02115310541F420918A08C5
:1022600030918B0840918C0850918D082093550C2B
:102270003093560C4093570C5093580C460157011D
:10228000860E971EA11CB11C8092630C9092640C68
:10229000A092650CB092660CE0917708F0917808F6
:1022A000F093690CE093680CB0E00E946D5ADC0179
:1022B000CB01880D991DAA1DBB1D80936A0C9093BC
:1022C0006B0CA0936C0CB0936D0C25E0EE0FFF1F10
:1022D0002A95E1F7E150FE4FEF2FFF27E6958E0F8D
:1022E0009F1FA11DB11D80935E0C90935F0CA09366
:1022F000600CB093610C8090790890907A08B12CB2
:10230000A12C8114910441F4809086089090870854
:10231000A0908808B0908908C81AD90AEA0AFB0A6E
:10232000C80CD91CEA1CFB1C04C0F694E794D79493
:10233000C794CA95D2F7C092590CD0925A0CE09229
:102340005B0CF0925C0C85EFC8168FE0D806E104B8
:10235000F10428F48CE08093670C81E00CCF80E1DD
:1023600025EFC2162FEFD206E104F104A0F380910D
:10237000920890919308A0919408B0919508809349
:102380006A0C90936B0CA0936C0CB0936D0C80E274
:10239000E2CF4F925F926F927F928F929F92AF9215
:1023A000BF92CF92DF92EF92FF920F931F93CF9342
:1023B000DF93EC01423051056105710590F480E036
:1023C000DF91CF911F910F91FF90EF90DF90CF9011
:1023D000BF90AF909F908F907F906F905F904F9045
:1023E000089589859A85AB85BC850196A11DB11D8F
:1023F00084179507A607B70710F3CB88DC88ED880C
:10240000FE888F89803109F042C0BB27A72F962F05
:10241000852F480159012A013B01C80ED91EEA1E29
:10242000FB1E8091000290910102A0910202B091E6
:102430000302C816D906EA06FB0699F58F89803192
:10244000C1F5B301A201552766277727440F551F11
:102450004A59574FFA01918280828091B406816077
:102460008093B4068A89823080F08D819E81AF810D
:10247000B8858C0D9D1DAE1DBF1D8093B506909334
:10248000B606A093B706B093B80681E099CFDB01FA
:10249000CA01E7E0B695A79597958795EA95D1F794
:1024A000B8CF40E0C701B6010E9456108111C6CFD7
:1024B00086CFB301A2014F77552766277727440FB0
:1024C000551F440F551F4A59574FFA018082918278
:1024D000A282B382C2CF8F929F92AF92BF92CF92CD
:1024E000DF92EF92FF920F931F93CF93DF93FC0144
:1024F00081859285A385B4850196A11DB11D8417A0
:102500009507A607B70770F480E0DF91CF911F9180
:102510000F91FF90EF90DF90CF90BF90AF909F9082
:102520008F90089583889488A588B688878980319C
:1025300089F5BB27A72F962F852FE9016A017B011B
:102540008F01BC01CD01680D791D8A1D9B1D8090F6
:10255000000290900102A0900202B0900302861641
:102560009706A806B90601F5F8018789803111F5AB
:10257000DD24EE24FF24F601EE0FFF1FEA59F74F8A
:1025800080819181B0E0A0E088839983AA83BB8396
:1025900081E0BBCFDB01CA01C7E0B695A79597954F
:1025A0008795CA95D1F7C9CF40E00E945610811196
:1025B000DBCFAACFE894C7F8DD24EE24FF24F60190
:1025C000EE0FFF1FEE0FFF1FEA59F74F8081918139
:1025D000A281B381BF70D8CF4F925F926F927F92EA
:1025E000AF92BF92CF92DF92EF92FF920F931F9321
:1025F000CF93DF9300D01F92CDB7DEB78C01498314
:102600005A836B837C835901C12CD12C7601412CD8
:1026100082E0582E612C712C49815A816B817C811A
:102620009E012F5F3F4FC8010E946B12882339F132
:10263000F8018585A301920104C0220F331F441FB6
:10264000551F8A95D2F7DA01C901C80ED91EEA1EB4
:10265000FB1E49815A816B817C818789803111F110
:1026600088EF9FEFAFEFBFE0481759076A077B0776
:1026700098F2F501C082D182E282F38281E00F906C
:102680000F900F900F90DF91CF911F910F91FF90BE
:10269000EF90DF90CF90BF90AF907F906F905F9062
:1026A0004F90089588EF9FEFA0E0B0E0DDCFCF938B
:1026B000DF93FC012581222321F080E0DF91CF917F
:1026C0000895EC018091670C803159F582E0858393
:1026D000178A108E118E128E8091680C9091690C61
:1026E000B0E0A0E025E0880F991FAA1FBB1F2A9524
:1026F000D1F7838B948BA58BB68B80E59CE09C8F68
:102700008B8F81E08C831E821F82188619861A8621
:102710001B861C861D861E861F86188A198A1A8AA1
:10272000CDCF803251F683E0858340916A0C509181
:102730006B0C60916C0C70916D0C478B508F618F9E
:10274000728F9F012D5E3F4F80E59CE00E94EC124E
:102750008111D3CFB2CF8F929F92AF92BF92CF927F
:10276000DF92EF92FF920F931F93CF93DF93EC01D1
:102770008D8181110EC080E0DF91CF911F910F916B
:10278000FF90EF90DF90CF90BF90AF909F908F9091
:1027900008950B891C892D893E8904171507260782
:1027A000370748F34A015B01823031F48A869B8601
:1027B000AC86BD8681E0E0CF81149104A104B10410
:1027C00049F41E821F82188619861A861B861C866B
:1027D0001D86F0CF0A851B852C853D85EB8DFC8DF4
:1027E000858590E00996B901A80141505109610918
:1027F0007109082E04C076956795579547950A94F8
:10280000D2F775016401E1E0CE1AD108E108F108C0
:1028100004C0F694E794D794C7948A95D2F7C41667
:10282000D506E606F70620F0012B022B032B11F547
:102830008F89988DA98DBA8D8E839F83A887B9873C
:102840008E010A5F1F4FC114D104E104F10409F4A1
:10285000ADCF4E815F816885798598018B8D9C8D88
:102860000E946B1291E0C91AD108E108F1088111A8
:10287000EACF81CFC41AD50AE60AF70AE1CF3F9220
:102880004F925F926F927F928F929F92AF92BF9280
:10289000CF92DF92EF92FF920F931F93CF93DF932C
:1028A000CDB7DEB72C970FB6F894DEBF0FBECDBF05
:1028B0005C01DC015B968D909C905C9716964D9028
:1028C0005D906D907C9019974114510461047104DE
:1028D00009F468C0BFEF4B1A5B0A6B0A7B0A312C04
:1028E000F40181859285A385B4859C01AD012F5F9C
:1028F0003F4F4F4F5F4F29873A874B875C87730164
:1029000062011D821E821F821886F40181859285D4
:10291000A385B4852D813E814F81588528173907BD
:102920004A075B0708F056C089859A85AB85BC8548
:102930008C159D05AE05BF0550F482E0C82ED12C44
:10294000E12CF12C92E0492E512C612C712C9E012E
:102950002F5F3F4FB701A601C4010E946B1288236D
:10296000C9F189819A81AB81BC81892B8A2B8B2B00
:1029700009F1260137019FEF491A590A690A790AB4
:102980002D813E814F8158852F5F3F4F4F4F5F4FC5
:102990002D833E834F8358873FEFC31AD30AE30A40
:1029A000F30AB3CFF40140805180628073803324F6
:1029B000339496CFC414D504E604F70409F70FEF57
:1029C0001FEF2FEF3FE0B701A601C4010E94C9111C
:1029D000811119C080E02C960FB6F894DEBF0FBEAF
:1029E000CDBFDF91CF911F910F91FF90EF90DF90BE
:1029F000CF90BF90AF909F908F907F906F905F909F
:102A00004F903F900895D50116964D915D916D912F
:102A10007C911997411551056105710539F09701B0
:102A20008601C4010E94C9118823A1F2D50116961E
:102A3000CD92DD92ED92FC921997332051F0D7019F
:102A4000C6010196A11DB11DF40180839183A2836B
:102A5000B383F5018789908DA18DB28D892B8A2B47
:102A60008B2B39F48481C78AD08EE18EF28E8068F8
:102A70008483F50184818062848381E0ACCF2F92CE
:102A80003F924F925F926F927F928F929F92AF92FE
:102A9000BF92CF92DF92EF92FF920F931F93CF934B
:102AA000DF9300D0CDB7DEB7FC018581811118C05E
:102AB0008FEF9FEF0F900F900F90DF91CF911F91AD
:102AC0000F91FF90EF90DF90CF90BF90AF909F90CD
:102AD0008F907F906F905F904F903F902F900895D0
:102AE000848180FFE5CF4389548965897689828511
:102AF0009385A485B585312C212C481759076A0781
:102B00007B0719F022242394312C6F012101CE017F
:102B100001963C01DF011696BB83AA834114510440
:102B200009F4C5C0F60142855385648575854A015F
:102B3000F1E09F22D6015B968D919C915C978A0172
:102B40009B01E9E03695279517950795EA95D1F70A
:102B50001596EC91E230E9F5FC01628D738D848D60
:102B6000958D600F711F821F931FA12C22E0B22E42
:102B7000A818B9084A145B0408F45201F60124812C
:102B800026FD04C0A114F2E0BF0671F4009100021A
:102B900010910102209102023091030206171707DB
:102BA0002807390709F05EC040E00E9456108823CC
:102BB00009F47ECFC4018A59974FD3019C012A0D95
:102BC0003B1DFC012E173F0709F46CC041914D934A
:102BD000F9CFDC011496BC90BA94B0228114910410
:102BE00079F4B1100DC0452B462B472B69F5F60142
:102BF0008789908DA18DB28D86839783A087B187B9
:102C0000D6015B96ED91FC915C9716966D917D9146
:102C10008D919C91199762507109810991092585BF
:102C200004C0660F771F881F991F2A95D2F7068563
:102C3000178520893189600F711F821F931F6B0DCB
:102C4000711D811D911D91CFD60116964D915D91FB
:102C50006D917C9119972A813B810E946B128111A1
:102C6000CFCF26CF730185019401AB01BC018091C8
:102C7000660A9091670A0E94F70E882309F418CF1C
:102C80006A0C7B1CF60182859385A485B5858A0D27
:102C90009B1DA11DB11D82879387A487B5874A1804
:102CA0005B083CCF281B390B620E731EEBCF2A94B6
:102CB000232809F0FDCE898190E0FCCEFC01818DB6
:102CC000928D009711F00C943F158FEF9FEF0895B0
:102CD0000F931F93CF93DF93EC01898D9A8D10E0B2
:102CE00000E0009799F00E943F158C010F3F1007FC
:102CF00069F0898D9A8DFC014285538564857585BF
:102D000041505109610971090E94AB13C801DF915B
:102D1000CF911F910F9108951F93CF93DF93FC01E3
:102D200025812223D1F1162FEC01848187FF2AC04F
:102D3000668577858089918941E00E9456108823B5
:102D400061F1EA8980E2E89FF0011124EA59F74F26
:102D5000309719F18D81823040F48B899C89AD893F
:102D6000BE89848F958FA68FB78F8F89988D938F0B
:102D7000828F8F89988DA98DBA8DB58BA48B8C810C
:102D80008F778C83111103C08C818F7E8C83812F70
:102D9000DF91CF911F910C942B1080E0DF91CF91A8
:102DA0001F910895FF920F931F93CF93DF93EC0130
:102DB0008D81813041F090E080E0DF91CF911F91D3
:102DC0000F91FF9008958C8181FFF5CF82FD1BC08C
:102DD0000091660A1091670AC8010E94840E0E9441
:102DE000D60DF82EC8010E94A90C8FEFF812E3CF80
:102DF0008C8185FF1BC060E0CE010E948C168C8107
:102E00008F7D8C83D8CF4B895C896D897E898A853B
:102E10009B85AC85BD8584179507A607B707C1F2CA
:102E2000CE010E94AB138111D3CFC5CF4091B5061F
:102E30005091B6066091B7067091B806452B462BA7
:102E4000472B21F080E00E940710B5CF80618C8372
:102E50002A853B85317080E092E0821B930BADCFD9
:102E6000CF93DF93EC0161E00E948C16882311F070
:102E70001D8281E0DF91CF910895FC01818D928DBB
:102E8000009719F061E00C948C1608952F923F92F0
:102E90004F925F926F927F928F929F92AF92BF926A
:102EA000CF92DF92EF92FF920F931F93CF93DF9316
:102EB00000D01F921F92CDB7DEB77C015B01342E8C
:102EC0005D83DC0115968C911597813009F0CEC099
:102ED00014962C9021FECAC022FCB4C0C32CDD8005
:102EE00022947FE027222094B22DB1702B2ED7019F
:102EF0001A964D915D916D917C911D97C114D104ED
:102F000009F428C15B968D919C915C97FC017480BB
:102F10007A948A019B0169E0369527951795079564
:102F20006A95D1F770228A011170711020C00115C5
:102F30001105E9F416964D915D916D917C9119976B
:102F4000411551056105710509F099C057968D919C
:102F50009D910D90BC91A02D0097A105B10509F0A0
:102F6000B0C0C7010E943F14882309F47FC080E0ED
:102F700092E0801B910B46018C159D0508F44C01D5
:102F8000D7015B964D915C915C9716968D919D91C2
:102F90000D90BC91A02D0297A109B109FA012585D8
:102FA00004C0880F991FAA1FBB1F2A95D2F7468518
:102FB000578560897189840F951FA61FB71F9C01D3
:102FC000AD01270D311D411D511D29013A0181140B
:102FD00032E0930609F07BC08091000290910102DB
:102FE000A0910202B091030284159505A605B705CC
:102FF00059F48FEF9FEFDC01809300029093010260
:10300000A0930202B0930302022D9501B301A20125
:103010008091660A9091670A0E94990F882331F186
:103020009EEFB91AC818D908F70182859385A4853F
:10303000B585880D991DA11DB11D82879387A48731
:10304000B58755CFF701438954896589768982858B
:103050009385A485B585481759076A077B0709F446
:103060003DCFC7010E94AB13811138CF81E090E0C2
:10307000D70113969C938E93129780E007C09E0110
:103080002F5F3F4F0E946B12811102C090E079C008
:1030900089819A81AB81BC81F701238D348DF9013F
:1030A000278948EF5FEF60E070E0203121F048EFC2
:1030B0005FEF6FEF7FE084179507A607B70708F06B
:1030C00050CFF70186839783A087B18750CF011532
:1030D000110599F5D7011A964D915D916D917C91ED
:1030E0001D9753968D919D910D90BC91A02D4817E1
:1030F00059076A077B0708F181E00E942B1088239B
:1031000009F4B4CF40920002509201026092020290
:10311000709203028091B40681608093B406C80166
:103120008A59974FD5019C01280D391DFC012E1796
:103130003F0759F04D914193FACF41E0C301B201ED
:103140000E9456108111EBCF91CF281B390BA20E94
:10315000B31E68CFF70183899489A589B68984173E
:103160009507A607B70738F48481438B548B658B8A
:10317000768B80688483F701848183FD1AC0832D58
:103180009D810F900F900F900F900F90DF91CF9136
:103190001F910F91FF90EF90DF90CF90BF90AF9075
:1031A0009F908F907F906F905F904F903F902F9067
:1031B000089561E0C7010E948C16882309F456CF58
:1031C000DECFCF93DF931F92CDB7DEB7698341E0A7
:1031D00050E0BE016F5F7F4F0E9446170F90DF9156
:1031E000CF910895CF93DF93EC01E98DFA8D30975D
:1031F00049F481E090E09B838A8390E080E0DF9156
:10320000CF91089513821282898D9A8D0E9446175C
:10321000E98DFA8D22813381232B59F7F0CFFF926C
:103220000F931F93CF93DF93FC0177FD72C08085CE
:103230009185681779070CF06CC057FD6AC08285CC
:103240009385481759070CF064C08689823009F4C9
:1032500066C0833009F474C0813041F48481958163
:10326000841B950BAB01BC016150710981A592A52E
:10327000681779070CF4CB0192A781A783A594A5C1
:10328000481759070CF4CA0194A783A785A596A5EA
:10329000861797070CF4CB0196A785A787A590A959
:1032A000841795070CF4CA0190AB87A787A98130D2
:1032B00051F42130310509F44CC008F470C02230BB
:1032C000310509F491C087A9843019F5A481B5812D
:1032D0004A9FC0014B9F900D5A9F900D112497FD5E
:1032E000019695958795AB0177FF02C04F5F5F4FC1
:1032F00055954795840F951F07A0F0A5E02DE80F81
:10330000F91F908160FD95C09F702295207F922BC0
:103310009083DF91CF911F910F91FF900895848149
:1033200095818C01061B170BB801615071098681CC
:103330009781DC01A41BB50BAD014150510996CF1B
:1033400086819781861B970BBA01AC0141505109C8
:103350008DCFCA0157FD0796C3E095958795CA950D
:10336000E1F7C481D5818C9FD0018D9FB00D9C9FCA
:10337000B00D1124CD01860F971FA7A1B0A5A80FEE
:10338000B91FEA01C770DD2781E090E08C0101C020
:10339000000FCA95EAF78C91802B8C9394CFCA01C9
:1033A00057FD0796B3E095958795BA95E1F7C481E7
:1033B000D5818C9FD0018D9FB00D9C9FB00D1124A5
:1033C000CD01860F971FA7A1B0A5A80FB91FEA01CD
:1033D000C770DD2781E090E001C0880FCA95EAF749
:1033E00080959C918923D9CFCA0157FD0796A3E008
:1033F00095958795AA95E1F7C481D5818C9FD001D9
:103400008D9FB00D9C9FB00D1124CD01860F971F8D
:10341000A7A1B0A5A80FB91FEA01C770DD2781E0F9
:1034200090E08C0101C0000FCA95EAF78C918027CB
:10343000B4CF907F2F70292B20836BCF0895FC0190
:103440006370668B8481958126813781613039F084
:10345000633029F0918780873387228708953187E9
:1034600020879387828708952F923F924F925F9291
:103470006F927F928F929F92AF92BF92CF92DF9284
:10348000EF92FF920F931F93CF93DF93CDB7DEB7E9
:103490006A970FB6F894DEBF0FBECDBF9A8F898FA3
:1034A0007A8369834A01D22E18870F833701BC2C97
:1034B000DC0159962D913C915A972115310509F05F
:1034C00015C118968D919C911997681779070CF082
:1034D000D7C11A968D919C91481759070CF0D0C10D
:1034E0004C2C512CB6E0CB9E600D711D11247C87B5
:1034F0006B87161617060CF0C3C1EA2DF0E0FA87A9
:10350000E98793E0EE0FFF1F9A95E1F7F88BEF87BD
:10351000CF01840F951F181619060CF0B1C1A98DA3
:10352000BA8D58968C91811104C0BFEABD1508F47C
:10353000D394A98DBA8DED91FC9111970284F385F6
:10354000E02DCD011995B5E0DB9EC0011124E98184
:10355000FA81FC83EB83312C212C9C012A563C4FB1
:10356000388F2F8B4A2D50E05E8B4D8BEF89F88D75
:10357000E20DF31D44919E828D82D12CC12C698174
:103580007A81620D731D7A8B698B842F90E09C8BFE
:103590008B8BE98DFA8DA081B18140FF82C0F1E073
:1035A000BF126FC0AF126DC01C96ED91FC912F81C0
:1035B0003885A4014C0D5D1D69897A89898D9A8DA4
:1035C0001995EB89FC89F595E7954E2F5FEFC51AA4
:1035D000D50A6D817E818D899E89680F791F7E83D2
:1035E0006D8398E0C916D10481F6AFEF2A1A3A0A22
:1035F000EB81FC81E40DF51DFC83EB83F5E02F16D8
:10360000310409F0B3CF2F81388526153705B9F07D
:10361000A98DBA8DED91FC91B1E0BB1257C0AB12F0
:1036200055C069817A816B5F7F4F0088F189E02DF9
:10363000830128E030E0A401898D9A8D1995A98D28
:10364000BA8DED91FC9111970688F789E02DCD0197
:103650006A960FB6F894DEBF0FBECDBFDF91CF9153
:103660001F910F91FF90EF90DF90CF90BF90AF90A0
:103670009F908F907F906F905F904F903F902F9092
:1036800019941E96ED91FC91EF80F88409851A85B6
:1036900092014D815E816B817C81898D9A8D199516
:1036A00090CF2F8138852615370509F48ACF31E070
:1036B000B31207C0A31205C01C96ED91FC919301B3
:1036C00078CF1E96ED91FC917301E0CF6B857C85E0
:1036D000641975090684F785E02D73010F85188933
:1036E0009201A401898D9A8D1995A9CFF90134967B
:1036F0009491329745915491D91AB7E0DB9E400DD1
:10370000511D1124F901259134913C8B2B8BFA0129
:1037100025903490FA013296749031963491398B19
:10372000329664903196449041E04C1518F04A1559
:1037300008F07FC0662D062C000C770B7C836B8312
:10374000842D042C000C990B9E838D83A98DBA8D3A
:10375000ED91FC9111970284F385E02DCD0119952F
:10376000512CD12CC12CEA2DF0E0FA87E9872B2DC2
:1037700030E03C872B87A401440D511D47FC5A952E
:10378000588F4F8B69817A81660D711D67FC7A9520
:103790007E876D877989C71608F051CF2C2D30E0D0
:1037A0004D815E81420F531FA985BA854A9FC00192
:1037B0004B9F900D5A9F900D1124FC01E80DF91DAF
:1037C000F88BEF87852D612C4F89588D420F531F41
:1037D0005E8B4D8B671408F050C044244394480E10
:1037E000877041F4C1010196EB89FC89E20DF31D5C
:1037F000D4901C01D7FE19C0A98DBA8DED91FC9112
:10380000662D70E0B1E0BB1219C0AB1217C02D8558
:103810003E85620F731F0484F585E02D2F81388566
:103820004D895E89898D9A8D1995DD0C6394842D5F
:10383000D1CF1E821D821C821B8288CF4B815C816E
:10384000640F751FAB85BC856A9FC0016B9F900D8F
:103850007A9F900D112469817A81680F791F0684FF
:10386000F785E02DEF80F88409851A859D014F8545
:103870005889898D9A8D1995D8CF570CC3948ACFC2
:103880006A960FB6F894DEBF0FBECDBFDF91CF9121
:103890001F910F91FF90EF90DF90CF90BF90AF906E
:1038A0009F908F907F906F905F904F903F902F9060
:1038B00008958F929F92AF92CF92EF92FF920F93C3
:1038C0001F93CF93DF93EC01262F898D9A8D00975C
:1038D00009F051C06A30D1F41D861C868D8948E0FC
:1038E000849F900111248E859F85820F931F9F874F
:1038F0008E8781E090E0DF91CF911F910F91FF9033
:10390000EF90CF90AF909F908F9008956D3089F396
:10391000CC88AD888F898823C1F08C859D8536E061
:10392000C39E800D911D112448855985481759075C
:1039300064F44E855F851D861C8638E0A39EC00119
:103940001124840F951F9F878E87EA88FB8808893A
:1039500019894E855F856C857D85CE010E94341A5C
:103960002C898C859D8546E0249F800D911D112416
:103970009D878C87BECF6A3069F41D861C86FC014A
:103980003896E4912D898E859F85E29F800D911D4B
:103990001124ADCF6D3009F4ACCFFC0134963491D5
:1039A000631708F4A6CF3296E491E61708F4A1CF86
:1039B000FC01329685909490462F431B342F47E0AC
:1039C000349F800C911C1124F4013296349131966D
:1039D000E4913323A9F1EE2399F1CC88F4013596D3
:1039E000E491AD884F89442301F10E2E000CFF0BAA
:1039F000E30FF11DCE9EA001CF9E500D11246C85CA
:103A00007D85460F571F68857985641775076CF4A7
:103A10004E855F851D861C86FC013896E491AE9E1E
:103A2000400D511D11245F874E87EA88FB88088965
:103A300019894E855F856C857D85CE010E94341A7B
:103A4000F4013496E4912C898C859D85E29F800D4C
:103A5000911D11248DCF6F927F928F929F92AF9282
:103A6000BF92CF92DF92EF92FF920F931F93CF936B
:103A7000DF93EC016B015A0139014801E881F981BA
:103A80000284F385E02D1995E881F9810288F38994
:103A9000E02D87019301A501B601CE011995A5017D
:103AA000480D591D41505109E881F9810288F38977
:103AB000E02D9301B601CE011995E881F9810088C6
:103AC000F189E02D9401A501B601CE011995C60C2E
:103AD000D71CB60161507109E881F9810088F1892C
:103AE000E02D9401A501CE011995E881F9810688A0
:103AF000F789E02DCE01DF91CF911F910F91FF90BB
:103B0000EF90DF90CF90BF90AF909F908F907F907D
:103B10006F9019946F927F928F929F92AF92BF9203
:103B2000CF92DF92EF92FF920F931F93CF93DF9389
:103B30005C01EB016A01490138018701DC01ED916B
:103B4000FC916217730719F5641675062CF0962D13
:103B5000872D3A01C92ED82E9601261937092F5FD5
:103B60003F4F048CF58DE02DA301BE01C5011995D1
:103B7000DF91CF911F910F91FF90EF90DF90CF9049
:103B8000BF90AF909F908F907F906F900895461553
:103B9000570591F42617370724F0892D4B01C22FC2
:103BA000D82F9E01281939092F5F3F4F068CF78DBA
:103BB000E02DA601B401DACF0284F385E02D19953A
:103BC000D501ED91FC910488F589E02D83019401E4
:103BD000A601BE01C5011995D501ED91FC9106889C
:103BE000F789E02DC501DF91CF911F910F91FF90D3
:103BF000EF90DF90CF90BF90AF909F908F907F908D
:103C00006F901994EF92FF920F931F93DC011A9615
:103C10000D911C911B9718962D913C911997ED9140
:103C2000FC9100A0F1A1E02D7B0150E040E070E0AC
:103C300060E019951F910F91FF90EF9008954F92BA
:103C40005F926F927F928F929F92AF92BF92CF922C
:103C5000DF92EF92FF920F931F93CF93DF936C014C
:103C60002B015A0139014801DC01ED91FC910284DC
:103C7000F385E02D1995E201640C751CD601ED91D8
:103C8000FC91C615D7055CF40088F189E02D870109
:103C90009401A501BE01C60119952196EFCF0688B2
:103CA000F789E02DC601DF91CF911F910F91FF9011
:103CB000EF90DF90CF90BF90AF909F908F907F90CC
:103CC0006F905F904F9019948F929F92AF92BF9296
:103CD000CF92DF92EF92FF920F931F93CF93DF93D8
:103CE000EC015B014A016901E881F9810284F385F5
:103CF000E02D199595012C0D3D1D21503109E881CC
:103D0000F9810488F589E02D78018401A401B501C9
:103D1000CE011995E881F9810688F789E02DCE0159
:103D2000DF91CF911F910F91FF90EF90DF90CF9097
:103D3000BF90AF909F908F9019948F929F92AF9267
:103D4000BF92CF92DF92EF92FF920F931F93CF9388
:103D5000DF93EC015B014A0169017801E881F98197
:103D60000284F385E02D1995C80CD91C86010150F9
:103D70001109E881F9810488F589E02D9501A401F4
:103D8000B501CE011995E881F9810688F789E02D02
:103D9000CE01DF91CF911F910F91FF90EF90DF90B7
:103DA000CF90BF90AF909F908F901994EF92FF9219
:103DB0000F931F93DC01ED91FC9100A0F1A1E02D88
:103DC00019951F910F91FF90EF9008950F931F93F6
:103DD000DC01ED91FC91068CF78DE02D19951F917A
:103DE0000F9108950F931F93DC01ED91FC91048CCA
:103DF000F58DE02D19951F910F910895DC01ED913E
:103E0000FC910084F185E02D19942F923F924F92FE
:103E10005F926F927F928F929F92AF92BF92CF925A
:103E2000DF92EF92FF920F931F93CF93DF9300D017
:103E300000D0CDB7DEB73C016A013E832D83FC8202
:103E4000EB825801A41AB50AB7FE03C0B194A1943D
:103E5000B1088D809E80861A970A97FE03C09194C0
:103E6000819491088A149B045CF0902F812F0D811E
:103E70001E819D838E839C2D8D2D6B01692F782F44
:103E80000C151D055CF09D818E817E836D83692FED
:103E9000782F902F812F8601C92ED82E1601201A37
:103EA000310A2B012D813E81421A530A57FE03C06D
:103EB000519441945108710137FE03C03FEFE31A5A
:103EC000F30AF594E7948D819E81861797075CF538
:103ED000A1E0B0E0BA83A983C016D1064CF1D301AA
:103EE000ED91FC910484F585E02D2B813C81A801A6
:103EF0006D817E818A149B041CF04D815E81B80126
:103F0000C3011995E418F508F7FE0AC02D813E811A
:103F100089819A81280F391F3E832D83E20CF31C7F
:103F20000F5F1F4FD9CF2FEF3FEF3A832983D4CFB5
:103F300026960FB6F894DEBF0FBECDBFDF91CF91AE
:103F40001F910F91FF90EF90DF90CF90BF90AF90B7
:103F50009F908F907F906F905F904F903F902F90A9
:103F6000089520918F06260F3327331F2132310504
:103F7000ECF42091A20AFC0190E080E0243069F08A
:103F800082E00895A0918F062191AC014159594FCB
:103F9000A40FB52FB11D2C930196861798F380912D
:103FA0008F06680F60938F0680E0089581E0089582
:103FB0001092A20A81E08093A10A10927C0A61E02B
:103FC00084E10E94760861E085E10E947608E9EBD1
:103FD000F0E080818E7F808380818D7F808388E484
:103FE0008093B80085E48093BC000895CF93DF935D
:103FF00091E090936E068823B9F0C091B800D091FB
:10400000BA008091BC008A7B8093BC0060E084E1B0
:104010000E94760860E085E10E9476080E94D81F21
:10402000D093BA00C093B800DF91CF9108958F92DA
:104030009F92AF92BF92CF92DF92EF92FF920F9337
:104040001F93CF93DF93D091CB0AD13208F0D7C022
:10405000182FC091CA0A0E9433096B017C0180911C
:10406000A20A81116BC082E08093A20A1093A10A78
:104070008FEF8093A00A10929F0AD0939E0AAAEA1B
:10408000BAE0EEE7FAE080E0D81391C010927D0A22
:1040900080917D0ACC0FC82BC0937D0A80917C0A49
:1040A000813009F088C010927C0A0E9433096B01AC
:1040B0007C0180917D0A8093BB008091A40A90913D
:1040C000A50AA091A60AB091A70A892B8A2B8B2B4F
:1040D000A1F00E9433090091A40A1091A50A209131
:1040E000A60A3091A70A6C197D098E099F09061747
:1040F00017072807390708F442C08091BC0083FDE8
:10410000D8CF85EC8093BC000E9433096B017C0101
:104110008091A20A823009F450C08091A00A8F3F9A
:1041200009F46FC08091A00A803209F46CC08091BC
:10413000A00A803309F469C084E026C08091A40AF3
:104140009091A50AA091A60AB091A70A892B8A2B63
:104150008B2B09F484CF0E9433098090A40A90909D
:10416000A50AA090A60AB090A70A6C197D098E092D
:104170009F0986169706A806B90608F070CF8091A9
:10418000A30A0E94F61F85E01092A90A1092CB0A9A
:104190001092A80ADF91CF911F910F91FF90EF909D
:1041A000DF90CF90BF90AF909F908F9008959D919A
:1041B00091938F5F69CF85EEA5CF8091A40A9091EE
:1041C000A50AA091A60AB091A70A892B8A2B8B2B4E
:1041D00009F49ECF0E9433090091A40A1091A50A08
:1041E0002091A60A3091A70A6C197D098E099F09B2
:1041F000061717072807390708F08ACFC0CF81E0D4
:10420000C3CF80E0C1CF82E0BFCF83E0BDCFCF92EC
:10421000DF92EF92FF920F931F93CF93DF93DA0118
:10422000A00FB11FEC01EC81FD81EA17FB0710F430
:1042300090E024C07A016B0189819A81488151E024
:104240005093A80A4093CA0A1092A90A1092CB0A66
:10425000012BF1F489819A81DC01ED91FC910280BE
:10426000F381E02DA701B6011995E816F90601F7CB
:1042700081E00E94172091E08111DACF892FDF9130
:10428000CF911F910F91FF90EF90DF90CF90089505
:1042900021153105F9F2DC01ED91FC910280F381E9
:1042A000E02D41E050E0B9011995019709F6D2CF10
:1042B0000F931F93FC01678350874187BC01695F9F
:1042C0007F4F10E000E030E020E043E050E08081EC
:1042D00091810E9407211F910F910895CF93DF9341
:1042E000EC0180E091E0442311F090E080E0AB012C
:1042F00050686B817C81462B572B6D817E81462BCC
:10430000572B482B592B61E0CE010E94582140E0E9
:1043100050E863E0CE010E94582150E040E062E0A6
:10432000CE01DF91CF910C9458212F923F924F9262
:104330005F926F927F928F929F92AF92BF92CF9235
:10434000DF92EF92FF920F931F93CF93DF9300D0F2
:1043500000D000D01F92CDB7DEB77C0180E48D8302
:10436000D70116962D913C91C901079697FD0796A6
:1043700063E0959587956A95E1F78887F701248131
:104380003581422E83A594A597FD079653E0959518
:1043900087955A95E1F7582ED7019996CC904C14F1
:1043A00008F4C22EF70145A556A557FD40E0B90116
:1043B00077277A876987AC2DB0E0BF83AE831D0174
:1043C000289F200C311C11244394440EB8855B16A1
:1043D00008F0A5C0F701A7A0B0A4A20CB31C84816B
:1043E000D42CD81ADC18058CF68DE02D90EB950DA9
:1043F000D701DA968C912E813F81280F311D44E040
:10440000359527954A95E1F7205F8C0D8F70309791
:1044100009F463C084809580B1E08B1A91081A82F8
:1044200019829A832B838C83F701278D30A141A1B8
:1044300052A160E074E284EF90E00E944B5A205158
:10444000310941095109569547953795279520938C
:10445000B80010E000E030E020E044E050E0BE01B1
:104460006F5F7F4FD7015D968D919C910E940721D0
:10447000DD20B1F0982CD81408F49D2C692C712CF7
:1044800001E010E09E012B5F3F4FA301B501F70152
:10449000858D968D0E940721A60CB71CD918E8CFF0
:1044A000D70193962D913D914D915C91969760E047
:1044B00074E284EF90E00E944B5A20513109410987
:1044C000510956954795379527952093B8005394F1
:1044D000E985FA852E0E3F1E79CF99832A838B8337
:1044E00060E0F70181A90E94760843E050E0BE0138
:1044F0006F5F7F4FD7015B968D919C910E94F70D66
:1045000061E0F70181A90E9476084D2D50E0B501C8
:10451000D7015B968D919C910E94F70DD8CF80E0DA
:1045200094E0D7019A969C938E9399979C969C932E
:104530008E939B978FEF9FEF9E969C938E939D9764
:10454000D0969C938E939F972A960FB6F894DEBFD1
:104550000FBECDBFDF91CF911F910F91FF90EF90D4
:10456000DF90CF90BF90AF909F908F907F906F9093
:104570005F904F903F902F900895CF92DF92EF92EF
:10458000FF920F931F93CF93DF931F92CDB7DEB7A8
:104590008C016B01FC01858D968DE42EF12C00972A
:1045A00099F0198201E010E09E012F5F3F4FA701B3
:1045B0000E9407210F90DF91CF911F910F91FF90E3
:1045C000EF90DF90CF90089560E081A90E94760877
:1045D000A701B601F801838D948D0E94F70DEACFF3
:1045E0000F931F93CF93DF9300D0CDB7DEB78C012D
:1045F0006B83FC01858D968D0097B1F01A8219822C
:104600006A8310E000E030E020E042E050E0BE01CC
:104610006F5F7F4F0E9407210F900F900F90DF91E7
:10462000CF911F910F91089560E081A90E947608B3
:1046300041E050E0BE016D5F7F4FF801838D948DA6
:104640000E94F70DE9CF611103C066EA0C94F022D5
:1046500067EAFCCFCF93DF93EC018B818823A1F035
:10466000888191E09093A80A8093CA0A1092A90ABF
:104670001092CB0A81E00E94172091E0811190E016
:10468000892FDF91CF91089510926D0A10926C0AD4
:104690001092A90A1092CB0A0E94D81F89E596E0D1
:1046A00090936B0A80936A0A8AE596E09093690A70
:1046B0008093680A81E08B83CE010E942A23982F81
:1046C0008111CECFDDCFE0916D0A80916C0AE817A1
:1046D00030F4F0E0EF53F94F808190E008958FEFD0
:1046E0009FEF089590916D0A80916C0A2FEF3FEF34
:1046F000981748F4E92FF0E0EF53F94F208130E0AC
:104700009F5F90936D0AC901089580916C0A909102
:104710006D0A891B990B0895CF92DF92EF92FF9259
:104720000F931F93CF93DF937C01CB018A012091DC
:10473000A80A222389F0EB016B01C40ED51ECC150B
:10474000DD0569F06991D701ED91FC910190F0814F
:10475000E02DC7011995F3CF642F0E94B11FC80146
:10476000DF91CF911F910F91FF90EF90DF90CF904D
:104770000895CF93DF931F92CDB7DEB76983209161
:10478000A80A2223F9F02091CB0A203258F021E028
:1047900030E0FC013383228390E080E00F90DF91D2
:1047A000CF9108958091A90AE82FF0E0E655F54FE2
:1047B000998190838F5F8093A90A8093CB0A81E0CF
:1047C00090E0ECCF61E0CE0101960E94B11FF7CFDF
:1047D000FC01848595850895FC0184899589089557
:1047E0002BEE32E0FC0131832083FB0140895189AB
:1047F00062897389FC0142835383648375830895BE
:10480000DC01ED91FC91048CF58DE02D199490E084
:1048100080E008952F923F924F925F926F927F9225
:104820008F929F92AF92BF92CF92DF92EF92FF92C0
:104830000F931F93CF93DF9300D01F921F92CDB79A
:10484000DEB77C01DC0117961C925C01B7E0AB0E71
:10485000B11C10E000E030E020E041E050E0B501A4
:10486000FC01808191810E940721D7010D90BC91AC
:10487000A02DBA83A983D12CC12C82E0282E312C03
:10488000E981FA818481958181010C191D098017C4
:10489000910708F48C01A981BA81BC91BD830E9463
:1048A00033092B013C018091A20A811177C00B834F
:1048B000013210F0F0E2FB8321E02093A20AC10153
:1048C000801B910BC816D90608F420E02093A10A9A
:1048D0008FEF8093A00A10929F0A8B818150809362
:1048E0009E0A91E090937D0A80917D0AAD81AA0F86
:1048F000A82BA0937D0A80917C0A813009F09AC090
:1049000010927C0A0E9433092B013C0180917D0AA0
:104910008093BB008091A40A9091A50AA091A60A59
:10492000B091A70A892B8A2B8B2BA1F00E94330907
:104930002091A40A3091A50A4091A60A5091A70A95
:104940006419750986099709261737074807590713
:1049500008F445C08091BC0083FDD8CFB5ECB0937E
:10496000BC000E9433092B013C018091A20A8130D6
:1049700009F464C080919F0AFB818F1718F420917D
:104980009F0A2B83AEE7BAE0E1ECF6E080E09B8182
:10499000891751F19D9191938F5FF9CF8091A40A6E
:1049A0009091A50AA091A60AB091A70A892B8A2BFB
:1049B0008B2B09F478CF0E9433092091A40A3091FF
:1049C000A50A4091A60A5091A70A6419750986099B
:1049D0009709261737074807590708F064CF8091D1
:1049E000A30A0E94F61F1B8210926D0AAB81A0934E
:1049F0006C0AA017110609F04AC045018C0C9D1CD9
:104A00009C828B828B819C818819990980179107E0
:104A1000B8F5E981FA8181819281DC01ED91FC9107
:104A20000284F385E02D1995EB81FC818193FC8351
:104A3000EB83E8CFE5EEE093BC0093CF8091A40A2E
:104A40009091A50AA091A60AB091A70A892B8A2B5A
:104A50008B2B09F48ACF0E9433092091A40A30914C
:104A6000A50A4091A60A5091A70A641975098609FA
:104A70009709261737074807590708F076CFAFCFB1
:104A8000C00ED11EF2E0CF16D10408F4F9CED70142
:104A900012962C91129717968D919C9198278927A1
:104AA0009827022E02C0969587950A94E2F7222352
:104AB00029F08115B8E09B0708F0906F0F900F90D8
:104AC0000F900F900F90DF91CF911F910F91FF905A
:104AD000EF90DF90CF90BF90AF909F908F907F909E
:104AE0006F905F904F903F902F9008958F929F927C
:104AF000AF92BF92CF92DF92EF92FF920F931F93EC
:104B0000CF93DF9300D01F92CDB7DEB77C0180E258
:104B1000689FF0011124EA59F74F93859171A9F02C
:104B2000842F827491F080E00F900F900F900F907F
:104B3000DF91CF911F910F91FF90EF90DF90CF9079
:104B4000BF90AF909F908F900895142FD7015296E9
:104B50006C935297409100025091010260910202C1
:104B6000709103021E964D935D936D937C935197C4
:104B700084889588B12CA12C5401992488245796B7
:104B80008D929D92AD92BC925A97828D938DB0E09A
:104B9000A0E0AC01BD01482959296A297B29D70128
:104BA00057964D935D936D937C935A978385887147
:104BB00009F08CC0848D958DA68DB78DF701838B00
:104BC000948BA58BB68B81E08583812F8F70D70165
:104BD00014968C931497F70116821782108611860B
:104BE0001A961D921D921D921C921D9716FF84C04D
:104BF00015968C911597813009F095CF11FF93CFC1
:104C000053968D919D910D90BC91A02D892B8A2B4F
:104C10008B2B09F471C040E050E0BA01C7010E943B
:104C2000AB13882309F47FCFF701C38CD48C87881A
:104C3000908CA18CB28C82E090E0A0E0B0E0F60114
:104C400080839183A283B3839E012F5F3F4FB50181
:104C5000A401C6010E946B12882309F464CF00E00E
:104C600010E09801B501A401C6010E94C911882372
:104C700009F459CF89809A80AB80BC80D6015796C1
:104C80008C918031A1F188EF9FEFAFEFBFE08816E4
:104C90009906AA06BB06C0F2F701178A108E118E7C
:104CA000128E138A148A158A168A848180688483F6
:104CB00061E0C7010E948C16882309F434CF40E0DC
:104CC00050E0BA01C7010E94AB132ECF803109F02A
:104CD0002ACF97012D5E3F4F5B968D919C910E944C
:104CE000EC12882309F41FCF84E0F7016DCF88EF21
:104CF0009FEFA0E0B0E0CBCF81E016CFCF93DF9362
:104D0000FC0124813581232B79F0C081D181062ECD
:104D1000000C770BCE010E941E5E009729F08C1BC1
:104D20009D0BDF91CF9108958FEF9FEFFACF0F93F7
:104D30001F93CF93DF9300D000D0CDB7DEB7809123
:104D4000CE0C9091CF0CDC01ED91FC91028CF38D97
:104D5000E02D1995892B61F08091CE0C9091CF0CAC
:104D6000DC01ED91FC910680F781E02D1995E7CFEC
:104D7000EFEEFCE08CE2DF011D928A95E9F783EE0D
:104D80008093EB0C1092EC0C86E08093ED0C8CEE93
:104D90008093EE0C81E38093F70C9EE49093F80CE3
:104DA0008093F90C84E38093FA0C6091D10C70919C
:104DB000D20C8091CE0C9091CF0CDC01ED91FC9146
:104DC0006115710509F497C00688F789E02D4BE756
:104DD00050E019958091CE0C9091CF0CDC01ED91B3
:104DE000FC910280F381E02D40E350E06BEE7CE02B
:104DF00019958091CE0C9091CF0CDC01ED91FC9136
:104E0000008CF18DE02D199510E06AE070E080E0F3
:104E100090E00E9458098091CE0C9091CF0CDC015B
:104E2000ED91FC91028CF38DE02D1995153609F466
:104E30007BC01F5F892B49F30E948A09212F30E034
:104E4000A9014F5F5F4FEAE0E49F9001E59F300DBD
:104E500011248901330F220B330BAB01BC01401B22
:104E6000510B620B730B4093E70C5093E80C60936B
:104E7000E90C7093EA0C8091CE0C9091CF0CDC0180
:104E8000ED91FC91048CF58DE02D40E350E06BEE4C
:104E90007CE019958091130D9091140D9827892726
:104EA0009827B0E0A0E0DC01992788274091150DF4
:104EB0005091160D54274527542770E060E0842B4D
:104EC000952BA62BB72B80589E47AA4AB3488093B0
:104ED000E30C9093E40CA093E50CB093E60C81E016
:104EE00026960FB6F894DEBF0FBECDBFDF91CF91EF
:104EF0001F910F9108950488F589E02D2BEE32E083
:104F00003A8329834091D50C5091D60C6091D70CEF
:104F10007091D80C4B835C836D837E834BE750E0AC
:104F2000BE016F5F7F4F55CF80E0DACFAF92BF9267
:104F3000CF92DF92EF92FF920F931F93CF93DF9365
:104F400000D01F92CDB7DEB78C016B017A01809142
:104F500034088333E9F45B016801C40ED51EC01622
:104F6000D106A9F10E946A0A8FE00E94B40C812F39
:104F70000E94B40C802F0E94B40C0F5F1F4F80E082
:104F80000E94B40CF50181935F010E94600AE7CF93
:104F9000843369F50E946A0A19830A838F2D8F77FB
:104FA0008B83EC8264E070E0CE0101960E94460A99
:104FB000A70170E060E0C6010E94175EE114F104F1
:104FC00021F0B701C6010E94460A0E94600AC7018B
:104FD0000F900F900F900F90DF91CF911F910F9135
:104FE000FF90EF90DF90CF90BF90AF9008950E9418
:104FF0006A0A0F3F110509F030F419820A831B82F7
:1050000063E070E0D1CF17FD0BC019820A8333E053
:10501000169507953A95E1F7007E08600B83F0CF6F
:10502000C80126E0969587952A95E1F7807E198339
:105030000A830115104C18F480618B83E1CF8861DD
:10504000FCCF1F93CF93DF931F92CDB7DEB7182FFE
:1050500080E591E00E94F40D812F0E94750A27E0FF
:10506000129FF0011124E451F84F228133813770EF
:1050700041E050E0BE016F5F7F4F820F931F0E949F
:10508000962789810F90DF91CF911F910895FC01A0
:10509000808D883040F4218D328D232B21F00E94A9
:1050A000212890E008958FEF9FEF0895CF93DF932D
:1050B000FC012485283028F08FEF9FEFDF91CF91FE
:1050C0000895EC010190F081E02D0084F185E02D40
:1050D0001995892B89F38C850E94212890E0EECFC9
:1050E000CF93DF931F92CDB7DEB741E050E0BE0112
:1050F0006F5F7F4F0E94962789810F90DF91CF913C
:10510000089590E080E00C947028CF93DF93C4E181
:10511000D0E00E948128882361F061E070E080E0A7
:1051200090E00E9458092197A1F780E0DF91CF918C
:10513000089581E0FBCF1F93CF93DF931F921F92BF
:10514000CDB7DEB760E372E080E090E00E945809DE
:105150000E94720C80911402282F30E0F901E6526F
:10516000F74FE491F0E0EE0FFF1FE054F74F459149
:1051700054915093BF064093BE06F901E05EF64F8E
:10518000E491E093BD0661E00E9402090E94600A7A
:1051900080E591E00E94F40D84E38093340880E878
:1051A0000E94690D0E948528882391F188E00E9461
:1051B000690D0E948128883059F580E10E94690DAF
:1051C0000E948128803121F580E00E94690D0E94B3
:1051D0008128182F81111CC08FE190E00E94702857
:1051E0008330B1F480E48093C00642E06EE170E069
:1051F000812F0E94B90D42E06FE170E0812F0E9483
:10520000B90D1F5F183089F781E080936E0A64C082
:1052100087E38093340880E80E94690D0E94852806
:105220008823F9F088E00E94690D0E948128883067
:10523000C1F480E10E94690D0E948128182F8031FD
:1052400081F480E00E94690D0E948128811109C0CB
:1052500089E390E00E947028843019F41093C0060E
:10526000D3CF83E38093340880E80E94690D0E94C5
:105270008528882371F180E10E94690D0E948128B0
:10528000803139F582E10E94690D0E9481288231C6
:1052900001F580E00E94690D0E948128811119C0EA
:1052A00084E08093C00615E51A8341E050E0BE011A
:1052B0006E5F7F4F8BE190E00E94BB0C198341E051
:1052C00050E0BE016F5F7F4F8AE190E00E94BB0C0F
:1052D0009BCF1092340880E00F900F90DF91CF9118
:1052E0001F910895CF92DF92EF92FF920F931F9339
:1052F000CF93DF93EC016B018A01790180916E0AF3
:105300008823E9F180E591E00E94F40D46E050E049
:105310006FE67AE089E090E00E94BB0CBE016E5F10
:105320007F4F44E050E08FE090E00E94BB0CB8015A
:105330006E5F7F4F44E050E081E090E00E94BB0C44
:10534000B7016E5F7F4F44E050E085E090E00E943F
:10535000BB0CF60182819381A481B58180932C0CD2
:1053600090932D0CA0932E0CB0932F0CDF91CF9126
:105370001F910F91FF90EF90DF90CF9008950E94C2
:105380009B28882399F3BECF2091C00630E0322FAE
:105390002227620F731F90E0982F8827860F971F90
:1053A0000C947028CF93C82F462F61E070E00E94C4
:1053B000B90D61E070E08C2F0E94C4298111F9CFF2
:1053C000CF910895CF93C82F80E591E00E94F40D0E
:1053D00068E070E08C2FCF910C94D229CF93C82F26
:1053E00080E591E00E94F40D60E170E08C2FCF9198
:1053F0000C94D229CF93DF93EC01888D883020F470
:105400000E94EE2988E0888FDF91CF91089563E0B4
:1054100070E00C94C429CF93C82F80E591E00E94DE
:10542000F40D8C2FCF910C94072AEF92FF920F93DB
:105430001F93CF93DF937C0180913408D4E08333B2
:1054400009F0D8E004E218E0C0E0F80121913191C0
:105450008F01F701848195812817390729F0CF5FE3
:10546000DC13F3CF80E006C08C2F0E940B2A84311E
:10547000B1F781E0DF91CF911F910F91FF90EF90F5
:105480000895CF93DF93EC018C858830D0F40E948F
:105490000B2A843189F0882379F0883169F021E082
:1054A0008C3159F4E881F9810084F185E02DCE0139
:1054B000199521E0892B09F420E0822FDF91CF910B
:1054C000089580E0FBCFCF92DF92EF92FF92CF93CF
:1054D000DF93EC018C85883068F40E94E2290E94F9
:1054E0008A096B017C018C850E940B2A811109C0FD
:1054F00088E08C87DF91CF91FF90EF90DF90CF9085
:10550000089561E070E080E090E00E9458090E94F8
:105510008A09AB01BC014C195D096E097F098D85B3
:105520009E85B0E0A0E0481759076A077B07D8F2CC
:105530008C850E94EE29DCCFCF93FC01C08D80E5E5
:1055400091E00E94F40D60E270E08C2F0E94D2295D
:1055500062E070E08C2F0E94C42984FD16C062E0D6
:1055600070E08C2F0E94C42983FF0AC048E162E0EA
:1055700070E08C2F0E94B90D80E090E0CF910895EB
:1055800080E591E00E94F40DE3CF40E162E070E03D
:105590008C2F0E94B90D81E0F0CF80916E0A882394
:1055A00049F080913408843351F08733A9F090E0BA
:1055B00080E008950E949B288823C9F3F2CF80E5FC
:1055C00091E00E94F40D85E390E00E94702885FD33
:1055D0000DC082E090E0089580E591E00E94F40D16
:1055E0008EE290E00E94702880FFF3CF81E090E08F
:1055F0000895DA01E091C006F0E0FE2FEE27E60FF5
:10560000F71F90E0982F8827A901BD018E0F9F1FDB
:105610000C9496278F929F92AF92BF92CF92DF9277
:10562000EF92FF920F931F93CF93DF93CDB7DEB727
:1056300060970FB6F894DEBF0FBECDBF7C0190918E
:105640003408911115C018E0812F60960FB6F894B8
:10565000DEBF0FBECDBFDF91CF911F910F91FF90A5
:10566000EF90DF90CF90BF90AF909F908F90089574
:1056700008E0933309F404E06B0180E591E00E94B7
:10568000F40D9E012F5F3F4F5901490110E0812F1A
:105690000E94072AF40181934F018823C1F01F5F04
:1056A0000113F5CF00E0F50181915F018D3149F0E3
:1056B000883139F08A51823020F00F5F1013F3CF18
:1056C000C2CF60E170E0802F0E94D229102FA12E5E
:1056D000B12CF501EE0FFF1FEC5DF74F1182108228
:1056E00083EE93E00197F1F742E870E060E0812FEC
:1056F0000E94B90D4FEF62E070E0812F0E94B90D5A
:10570000B601C114D10491F4809115029091160252
:1057100001968115F0EC9F0708F45CC09093160287
:10572000809315026091150270911602812F0E94DC
:10573000A30D86E0EDE1F2E0DE01199601900D92F5
:105740008A95E1F7F70183818F778C8784818D8734
:1057500085818E87A7014E5F5F4F24E030E06CE0CB
:1057600070E0812F0E947C0DB601812F0E948D0D6B
:1057700026E030E0AE01475F5F4F66E070E0812FCA
:105780000E947C0D61E070E0812F0E94D22927E009
:105790002A9DC0012B9D900D11249C012451384F4E
:1057A0007901F9011182108222E030E0AE01415FFF
:1057B0005F4F68E270E0812F0E94F92A8F859889F7
:1057C000982789279827F701938382831682158269
:1057D00014823ACF80E090ECA1CFCF92DF92EF928B
:1057E000FF920F931F93CF93DF9300D000D0CDB7DC
:1057F000DEB78C016B017A01FC01808D883010F4DA
:105800000E94EE298BEE92E09A838983F6018281D1
:105810009381A481B5818B839C83AD83BE83B701C3
:10582000CE0101960E940A2BF801808F8830A0F4E7
:10583000F586E486128E118E81E026960FB6F894D6
:10584000DEBF0FBECDBFDF91CF911F910F91FF90B3
:10585000EF90DF90CF90089580E0EFCF7F928F920E
:105860009F92AF92BF92CF92DF92EF92FF920F93EF
:105870001F93CF93DF931F921F92CDB7DEB7782E81
:105880008B014A01590122E030E0AE014F5F5F4FCA
:1058900064E270E00E94F92AE980FA80FE24EF2495
:1058A000FE24E00EF11E9701377040913408072D59
:1058B00010E0433309F042C0085F1F4F102F00274C
:1058C000110F110F110FC901800F911F4733C9F13B
:1058D000A9014A0D5B1D4130584098F160E078E025
:1058E0006B01C21AD30AA601B4010E94BB0CA50128
:1058F0004C195D09B4016C0D7D1DC8010E94BB0CE3
:10590000EA0CFB1CF982EA8222E030E0AE014F5F34
:105910005F4F64E270E0872D0E947C0D0F900F9026
:10592000DF91CF911F910F91FF90EF90DF90CF907B
:10593000BF90AF909F908F907F900895005F1F4F12
:10594000BDCFA501B401DACFEF92FF921F93CF93A1
:10595000DF931F921F92CDB7DEB7182F22E030E001
:10596000AE014F5F5F4F60E270E00E94F92AE9806C
:10597000FA80FE24EF24FE2422E030E0AE014F5FE7
:105980005F4F60E270E0812F0E94F92A89819A813D
:10599000982789279827E816F90689F487E0189F41
:1059A000F0011124E451F84FF582E482C7010F9011
:1059B0000F90DF91CF911F91FF90EF9008957C01A0
:1059C000DBCF1F93CF93DF93182F80E591E00E94E8
:1059D000F40D812F0E94A42CEC01812F0E94072A34
:1059E000873121F08C3111F0D0E0C0E0CE01DF91A1
:1059F000CF911F910895CF93DF93EC018C85883070
:105A000060F40E940B2A873111F08C3131F48C85BF
:105A10000E94E12C8115984088F3DF91CF91089581
:105A2000FC018485883010F40C94E12C90E080E037
:105A30000895CF92DF92EF92FF921F93CF93DF935F
:105A4000182F7B01EA014130584010F0C0E0D8E047
:105A500080E591E00E94F40D812F0E94A42C6C013E
:105A6000812F0E94072A873111F08C3121F5CC1645
:105A7000DD0670F380E591E00E94F40D9E01A70120
:105A800070E060E0812F0E942E2C60E270E0812F98
:105A90000E94D22962E070E0812F0E94C42984FD17
:105AA0000DC0812F0E94072A8823B9F080E591E07C
:105AB0000E94F40DEFCFD0E0C0E0DCCF40E162E027
:105AC00070E0812F0E94B90DCE01DF91CF911F911F
:105AD000FF90EF90DF90CF900895D0E0C0E0F4CF3A
